:10000000CEC002C1E7C0E6C0E5C0E4C0E3C0E2C0C4
:10001000E1C0E0C0DFC0DEC0DDC0DCC0DBC0DAC0F4
:10002000D9C0D8C0D7C094C397C39AC39DC3A0C337
:10003000A3C3A6C3A9C3ACC3AFC3B1C3B3C30501B4
:100040000902A1010901A10085010509190129037E
:100050001500250195037501810295017505810340
:100060000501093009311581257F75089502810642
:10007000C0C005010906A1018502750195080507A3
:1000800019E029E715002501810295017508810312
:10009000950575010508190129059102950175035A
:1000A000910395057508150026A400050719002A77
:1000B000A4008100C0050C0901A101850319002AD3
:1000C0003C021500263C02950175108100C0050117
:1000D0000980A10185049501750215012503098296
:1000E00009810983816075068103C009022200012C
:1000F0000100A032090400000103010100092101EF
:1001000001000122AD000705810308000A12011059
:1001100001000000084242BEBA9801010203010634
:1001200003340032003A03500052003000420030E5
:10013000004100520044002D005200690070007020
:100140000065007200310032003100400067006D30
:1001500000610069006C002E0063006F006D003AC2
:100160000350005200300042003000410052004471
:10017000002D0052006900700070006500720031AF
:100180000032003100400067006D00610069006CC2
:10019000002E0063006F006D0004030904001124A9
:1001A0001FBECFE5D4E0DEBFCDBF10E0A0E6B0E0DB
:1001B000E8E7FAE002C005900D92A436B107D9F73E
:1001C00020E0A4E6B0E001C01D92A53AB207E1F735
:1001D00024D250C415CFA82FB92F80E090E041E081
:1001E00050EA609530E009C02D9182279795879558
:1001F00010F084279527305EC8F36F5FA8F3089549
:10020000EADF8D939D930895CF93CFB7CF93C39596
:10021000B09BE9F7B09B09C0B09B07C0B09B05C07D
:10022000B09B03C0B09B01C0A3C0DF93C091880006
:10023000DD27C157DF4FB09B02C0DF91EBCF2F937B
:100240000F931F9306B32FEF00FB20F94F933F93BB
:1002500016B34FEF012700FB21F93BE031C04E7F81
:10026000012F16B3216028C0102F4D7F226000009F
:1002700006B329C04B7F2460012F000016B32BC0AA
:1002800016B3477F28602AC04F7E06B320612CC07A
:100290004F7D16B320622FC04F7B06B3206432C05F
:1002A000422706B349934FEF0000102710FB20F9B7
:1002B00016B31370C9F1297F91F2012700FB21F9D0
:1002C00006B3237F89F2315058F1102710FB22F931
:1002D00016B3277E79F2012700FB23F92F7C81F2E8
:1002E00006B3102710FB24F92F7971F200C016B362
:1002F000012700FB25F92F7359F200C006B3102720
:1003000010FB26F9223040F200C016B3012700FB93
:1003100027F9243028F64F77206816B30000F9CF6C
:1003200010E41ABF002719C03B503195C31BD040C1
:1003300010E41ABF0881033CF9F00B34E9F0209176
:1003400085001981110F1213EDCF4A81441F093620
:1003500041F10D3211F0013E29F700938D003F91DC
:100360004F911F910F912F91DF91CAB7C6FD4FCFCB
:10037000CF91CFBFCF91189520918D00222379F393
:1003800010918B00112369F534306AF130938B00A2
:1003900020938700109188003BE0311B3093880048
:1003A00022C000918B000130E4F40AE54F7049F45B
:1003B0003091620034FD19C000936200CEE6D0E0B7
:1003C00018C03091790034FD10C000937900CAE75D
:1003D000D0E00FC02795A8F45150A9F4220F0000D7
:1003E000F9CF4AE503C042ED01C0432FC4E1D0E09C
:1003F00032E017B31360C09A17BB08B320E413E0D0
:100400005F93012756E008BB279520F4515021F453
:10041000220FF9CF012756E000003B5A08BBD0F26B
:10042000279528F4515029F4220F0000F9CF012715
:1004300056E0279508BB20F4515021F4220FF9CF44
:10044000012756E02991332308BB21F60C7F109138
:100450008C00110FC651D04008BB11F010938500DD
:1004600010E41ABF016017B31C7F402F4C7F5F91CF
:1004700000C000C008BB17BB48BB71CFA298AA98A8
:10048000A398AB98A498AC98A598AD9888989098A4
:10049000899891980895F89488B38C7F88BBB89A0E
:1004A0002FEB87E299E0215080409040E1F700C0B7
:1004B0000000B898D2D2789408951F93CF93DF9319
:1004C000182FC9E7D0E09ED1888184FFFCCF612F2F
:1004D00086E690E074D1DF91CF911F910895FC01E1
:1004E00081E08093650090819076903209F05BC046
:1004F00081818330D9F028F4813029F1823049F0AC
:1005000054C08A3071F08B30C9F0893009F04DC089
:1005100041C080E690E090938A008093890081E05A
:10052000089583818093600080E0089584E690E0E0
:1005300090938A008093890081E00895838180935D
:10054000640080E00895A6E6B0E0B0938A00A0932E
:10055000890082818C9317961C92179716961C928D
:10056000169715961C92159714961C92149713962D
:100570001C92139712961C92129711961C928281CC
:100580008130A9F08230A9F08330B1F0843099F045
:1005900088E0089581E0268137812230310509F015
:1005A00080E08195089580E0089580E0089584E0DA
:1005B000089588E0089582E00895EF920F93E6E6AB
:1005C000F0E0818312826383448325830683E7827C
:1005D00082E0808388E071DF0F91EF900895EF92C1
:1005E0000F93E12C00E020E040E0E7DF0F91EF9077
:1005F00008951F93CF93DF93C6E6D0E013E01883EE
:1006000089831A8283E059DF188319821A8283E072
:1006100054DFDF91CF911F9108953DDF85E083BFC7
:10062000A09AA19AA898A99829DFD0E00F2EF6E009
:10063000EF2EF02D0F2EF7E0DF2EF02DBB24B3941C
:100640006894CC24C3F86894772471F80F2EF5E0F1
:100650008F2EF02D6894992492F80F2EF3E0AF2E90
:10066000F02DF12C19E00AE009DF889A909A899A16
:100670009198A298AA9AA498AC9AA598AD9A87EB5B
:100680009BE00197F1F700C000009A9902C09C9B83
:100690003DC09A9902C09D9B3BC0F0DE889A90981D
:1006A000899A919AA298AA9AA398AB9AA498AC9A7C
:1006B000A598AD9A87EB9BE00197F1F700C0000089
:1006C0009A9B28C09B9B28C09C9B28C09D9B28C0B0
:1006D000D5DE889A909A899A9198A298AA9AA39816
:1006E000AB9AA498AC9AA598AD9A87EB9BE001973A
:1006F000F1F700C000009A9B15C09B9B15C09C9B06
:1007000015C09D9B15C0BADECF2D13C0C02F11C0E0
:10071000C12F0FC0CE2D0DC0CD2D0BC0CB2D09C0CC
:10072000CC2D07C0C72D05C0C82D03C0C92D01C0E1
:10073000CA2D809165008823C9F1DC17A9F18C2F9F
:1007400090E08C30910580F5FC01ED5EFF4F09943F
:100750006F2D8F2D44DF28C0612F8F2D40DF24C0E7
:1007600061E58F2D3CDF20C066E58F2D38DF1CC092
:1007700067E58F2D34DF18C06FE48F2D30DF14C094
:1007800060E58F2D2CDF10C062E58F2D28DF0CC0B7
:100790006EE38F2D24DF08C08AEE2BDF05C089EEC3
:1007A00028DF02C082EE25DFA89A01C0A898CC23DA
:1007B00011F0A99A01C0A99825D0DC2F55CFCF936D
:1007C000C62F2091790024FF07C0E9E7F0E03181CE
:1007D00028E82327218303C02AE5209379002C2FC2
:1007E000E82FF92FABE7B0E081918D9321501216DD
:1007F000DCF36C2F8BE790E003DDCC5FC0937900D6
:10080000CF910895CF93DF9380918B0083500AF4AA
:10081000BEC0909187009D3209F0B7C0883009F0C2
:10082000B4C080918800CCE0D0E0C81BD109C1578A
:10083000DF4F83EC80936E008AE580936200109214
:1008400086008881807619F0CE0149DE95C09A81B4
:10085000109277008981811106C01092780027E7F5
:1008600030E082E085C0853031F490938C0027E73A
:1008700030E080E07DC0863009F05AC08B81813045
:1008800041F48DE091E090938A008093890082E1A9
:100890004BC0823041F48BEE90E090938A008093BD
:1008A000890082E241C0833041F5911108C089E995
:1008B00091E090938A008093890084E035C0913064
:1008C00041F48FE591E090938A00809389008AE358
:1008D0002BC0923041F485E291E090938A0080939E
:1008E00089008AE321C09330E1F48FE191E0909395
:1008F0008A008093890086E017C0813241F48DEF31
:1009000090E090938A008093890089E00DC0823244
:1009100051F48EE390E090938A00809389008DEAF1
:1009200003C080E001C080E090E49093860024C082
:10093000883099F0893031F490938E0027E730E0C9
:1009400080E016C08A3069F08B3079F48BE48093B4
:100950007A0027E730E080E00BC02EE830E081E04D
:1009600007C027E730E081E003C027E730E080E000
:1009700030938A00209389009F81911104C09E8149
:10098000981708F4892F8093610010928B00809152
:10099000620084FF4BC0809161008F3F09F446C024
:1009A000C82F893008F0C8E08C1B80936100EEE608
:1009B000F0E0908188E889278083CC2309F444C043
:1009C0002091890030918A008091860086FF10C0B6
:1009D000AFE6B0E0F9018C2F94919D933196815050
:1009E000D9F78FEF8C0F90E00196280F391F0EC0BA
:1009F000D901EFE6F0E08C2F9D9191938150E1F7C2
:100A00008FEF8C0F90E00196280F391F30938A00EA
:100A1000209389006C2F8FE690E0F2DBCC5FCC3026
:100A200018F48FEF80936100C093620086B38370E7
:100A300089F493E186B3837069F49150D9F71092E9
:100A40008C001092850006C06C2F8FE690E0D8DBFA
:100A5000CC5FE7CFDF91CF91089585B7836085BFE5
:100A60008BB780648BBFE9E7F0E08BE481838AE594
:080A700080830895F894FFCF84
:040A78007DFF5A00A4
:00000001FF
