:10000000A8C0CCC0F8C0CAC0B2C7C8C0C7C0C6C0AC
:10001000C5C0C4C0C3C0C2C0C1C0C0C0BFC005014C
:100020000902A1010901A10085010509190129039E
:100030001500250195037501810295017505810360
:100040000501093009311581257F75089502810662
:10005000C0C005010906A1018502750195080507C3
:1000600019E029E715002501810295017508810332
:10007000950575010508190129059102950175037A
:10008000910395057508150026A400050719002A97
:10009000A4008100C0050C0901A101850319002AF3
:1000A0003C021500263C02950175108100C0050137
:1000B0000980A101850495017502150125030982B6
:1000C00009810983816075068103C009022200014C
:1000D0000100803209040000010300000009210131
:1000E00001000122AD000705810308000A1201107A
:1000F00001000000088117AB240001010200012467
:10010000035400720069006E006B006500740020EB
:1001100000480049004400200043006F006D006269
:10012000006F0012034100640061006600720075F8
:10013000006900740004030904010204081020018E
:1001400001010101010036003800370098030D0657
:100150009D0311241FBECFE5D2E0DEBFCDBF10E06E
:10016000A0E6B0E0EAE5F5E102C005900D92A43703
:10017000B107D9F720E0A4E7B0E001C01D92A83D87
:10018000B207E1F711E0C0E5D1E003C02297FE011C
:10019000ADD8CC34D107D1F7D7D6D3C931CFA82F1A
:1001A000B92F80E090E041E050EA609530E009C06E
:1001B0002D9182279795879510F084279527305E9B
:1001C000C8F36F5FA8F30895EADF8D939D930895B8
:1001D000A6E088279927AA9569F00197E1F3B399DA
:1001E000FCCFB39BFECF81E09927A6B3019611F017
:1001F000A871D9F70895CF93CFB7CF93C395B39B89
:10020000E9F7B39B0BC0B39B09C0B39B07C0B39B7B
:1002100005C0B39B03C0B39B01C0D5C00F92DF9351
:10022000C091B700DD27C254DF4F012EB39B03C03E
:10023000DF910F90E6CF2F930F931F934F932FEFE4
:100240004F6F06B303FB20F95F933F9350E03BE011
:1002500065C016B30126502953FDC89556B3012732
:1002600003FB25F92F7306B3B1F05027102713FBBA
:1002700026F906B22230F0F000C016B3012703FBC6
:1002800027F90126502906B22430E8F54F77206877
:1002900016B30000F6CF50274F7D206206B2102F14
:1002A000000000C006B300265029102713FB26F9D2
:1002B00006B2E2CF4F7B06B3206400C0DACF01263E
:1002C0005029187106B269F14E7F2160012F16B3D3
:1002D00028C0002650294D7F06B22260102F29C069
:1002E000012650294B7F06B22460012F2DC016B382
:1002F00001265029477F2860000006B22EC04F7E9D
:1003000006B3206130C0422706B349930026502926
:10031000102706B24FEF13FB20F9297F16B379F2AD
:10032000187159F10126502906B2012703FB21F962
:10033000237F06B371F2002650293150D0F006B267
:10034000102713FB22F9277E16B351F201265029FC
:10035000012703FB06B223F92F7C49F2000006B304
:10036000102713FB24F90026502906B22F7939F201
:1003700070CF10E21ABF002719C03B503195C31B44
:10038000D04010E21ABF0881033C09F10B34F9F0A8
:100390002091B5001981110F1213EDCF4A81441F2E
:1003A000093651F10D3211F0013E29F70093BC00DE
:1003B0003F915F914F911F910F912F91DF910F907E
:1003C000CAB7C5FD1BCFCF91CFBFCF911895209154
:1003D000BC00222369F31091BA00112379F534305F
:1003E0007AF13093BA002093B6001091B7003BE049
:1003F000311B3093B70024C00091BA000130F4F4EF
:100400000AE54F7049F43091680034FD1AC000933A
:100410006800CEE9D0E019C03091A90034FD11C0C8
:100420000093A900CAEAD0E010C0052710E000C080
:1004300021C0052710E0C89508BB14C03AE501C0EB
:1004400032ED032EC0E0D0E032E017B31861C39A5A
:1004500008B317BB58E120E84FEF20FF052708BB82
:10046000279517951C3F28F700004552B0F720FF4D
:100470000527279508BB17951C3FB8F629913A9593
:1004800061F7077E1091BB00110F08BBC250D0402E
:1004900011F01093B50010E21ABF086017B3177E71
:1004A000402F477E54E05A95F1F708BB17BB48BB75
:1004B0007FCFCF92DF92EF92FF920F931F93CF9354
:1004C000DF93D62FC42F68017901682F70E080E098
:1004D00090E0DBD5A701960164D6A9D5609383008F
:1004E0006D2F70E080E090E0D0D5A701960159D63D
:1004F0009ED5609382006C2F70E080E090E0C5D5BF
:10050000A70196014ED693D560938400E12CF12C7F
:10051000209182003091830040918400B70186E7EA
:1005200090E096D38FEFE81AF80A88E0E816F10415
:1005300079F786E790E0DF91CF911F910F91FF90BF
:10054000EF90DF90CF90ABC30F931F9361E081E0FA
:1005500033D461E081E067D480E00DD460E086E7C9
:1005600090E0C0D30DEC1CEC2CEC3DE340E060E4EB
:100570008FEF9FDF8AE890E01F910F9110C31F93C8
:10058000CF93DF9387E0FAD315E0C0E0D0E087E0B7
:10059000F5D3C80FD91F1150D1F7CE0165E070E037
:1005A0007CD6CB01DF91CF911F9108951F93CF93FC
:1005B000DF9310E0E4DFEC01E2DF8C179D07C9F761
:1005C0001F5F1430B8F3813A21E092076CF58C3844
:1005D00021E092070CF061C08F3C910594F48A3BB6
:1005E00091050CF050C0853791050CF448C08A384D
:1005F00091050CF45AC084599109459708F453C0E9
:100600003EC08C3221E0920754F4873121E09207FA
:100610000CF04FC0815E91094597B8F130C08C5401
:1006200091404597F0F12BC08D3922E09207B4F448
:10063000883822E092075CF58F3122E092074CF473
:100640008A3022E092079CF5845C9140459708F13E
:1006500016C087549240459710F111C08B3723E0A4
:1006600092074CF4863623E09207ACF48A5B924002
:10067000459738F004C0805893404597E0F080E0FB
:100680001BC08AE119C087E017C086E115C08EE360
:1006900013C081E511C089E00FC084E00DC08FE078
:1006A0000BC083E109C08DE007C08AEE05C089EE6A
:1006B00003C084E101C082E5DF91CF911F910895CD
:1006C0008AE890E0A7D2882381F170DF80937400DC
:1006D000882339F1409175009FEA980F923060F4B9
:1006E00048130AC060E08AE890E05BD240E060E036
:1006F0008AE890E056D20DC0481759F097E1980F5C
:10070000923028F4682F8AE890E05ED2EFCF482F2D
:10071000E9CF81E0B7D361E0892B09F060E081E0A7
:1007200082D380917400809375008AE890E038C28B
:1007300068E070E086E790E077C286E790E0CEC29E
:10074000F89480E090E020E80FB6F89426BD86BDCE
:100750000FBE88B3877E88BBBB9A27EA86E99CE0F8
:10076000215080409040E1F700C00000BB9809D2C2
:1007700078940895D8C0CF93DF931F92CDB7DEB79A
:100780008983D1D09091A900898194FFF9CF682FF6
:1007900086E990E00F90DF91CF91A1C0FC0181E04C
:1007A0008093870080818076803209F04EC08181FD
:1007B0008330A1F040F48130E9F0823009F045C087
:1007C00086E690E00DC08A3029F08B3079F08930D0
:1007D000E1F532C083818093660037C086E890E0FF
:1007E0009093B9008093B80081E00895838180934D
:1007F00086002BC086E990E09093B9008093B80002
:1008000082818093960010929D0010929C0010921D
:100810009B0010929A0010929900109298001092EA
:1008200097008281813099F0823099F0833091F085
:10083000843079F482E0089581E026813781223086
:10084000310509F080E08195089580E0089584E005
:10085000089588E00895FC0181818093850081E0FE
:100860000895DF92EF92FF920F931F93CF93DF9340
:10087000C8E0D0E0F12C80E8E82EDF2CDE0CD1BE01
:10088000A7DC8C01043389E018070CF4FD2CE694F6
:10089000219799F78FEF8F0D81BFCF2DD0E0219653
:1008A00081B790E0C817D9078CF092DC8453994047
:1008B00097FF03C09195819591098017910714F4D2
:1008C000F1B68C0181B78F5F81BFEACFF1BEDF91B6
:1008D000CF911F910F91FF90EF90DF900895CF93EC
:1008E000C62F2091A90024FF07C02091AA0038E854
:1008F00023272093AA0003C02AE52093A900DC0146
:10090000EBEAF0E09C2F9E0F8D918193892F8E1B37
:100910001816D4F36C2F8BEA90E056DCCC5FC093B2
:10092000A900CF910895CF93DF936091BA006350EF
:1009300067FDBCC08091B700CCE0D0E0C81BD109F6
:10094000C254DF4F8091B6008D3209F09EC06830EE
:1009500009F0AAC083EC80939E008AE5809368002A
:10096000109289008881807619F0CE0117DF7AC055
:100970009A811092A7008981811106C01092A80067
:1009800027EA30E082E06AC0853019F49093BB001A
:1009900062C0863009F049C08B81813019F48DEE38
:1009A00090E01AC0823041F48BEC90E09093B90053
:1009B0008093B80082E235C08330F1F4911108C011
:1009C00085E391E09093B9008093B80084E029C05A
:1009D000913041F483E291E09093B9008093B800A4
:1009E00082E11FC09230E1F48FEF90E09093B90064
:1009F0008093B80084E215C0813241F48DED90E01F
:100A00009093B9008093B80089E00BC0823241F422
:100A10008EE190E09093B9008093B8008DEA01C018
:100A200080E090E4909389001DC0883069F089309F
:100A300019F49093BD000FC08A3049F08B3059F4FF
:100A40008BE48093AA0007C02DEB30E002C027EAB8
:100A500030E081E003C027EA30E080E03093B90065
:100A60002093B8008F3F39F4988197FD8E8190E8EC
:100A70009093890007C09F81911104C09E819817AF
:100A800008F4892F809367000FC08091890087FF49
:100A90000BC0CE01E0DE8F3F21F48EE18093680031
:100AA00003C08111109267001092BA008091680013
:100AB00084FF4CC0809167008F3F09F447C0C82F66
:100AC000893008F0C8E08C1B8093670080919E00FD
:100AD00098E8892780939E00CC2361F18091B8002B
:100AE0009091B9002091890026FF12C0AFE9B0E0D3
:100AF0002EE930E020953095280F391F4C2F4A0FF2
:100B0000F901EA0FFB1FE491ED934A13F9CF09C0F5
:100B1000EFE9F0E0DC012C2F2E0F3D9131932E13E5
:100B2000FCCF01962FEF2C0F820F911D9093B900EF
:100B30008093B8006C2F8FE990E046DBCC5FCC301F
:100B400019F08FEF80936700C093680084E196B33B
:100B5000987131F48150D9F71092BB001092B50012
:100B6000C1E08111C0E0809188008C1739F0C1117B
:100B700003C0F89476DE7894C0938800DF91CF911B
:100B80000895AC9A8BB780628BBF8BE48093AA00E8
:100B90008AE58093A900089581E090E00895D0CD82
:100BA000E9CD6093970010929800409399001092BD
:100BB0009A0010929B0010929C0010929D0082E07F
:100BC0008093960088E0D7CDDF92EF92FF920F934B
:100BD0001F93CF93DF9386E9E82E80E0F82E93E011
:100BE000D92EF701D08207E910E0F8016083C8E947
:100BF000D0E0188283E0BFDDF701D082F8011082D7
:100C0000188283E0DF91CF911F910F91FF90EF90B9
:100C1000DF90B1CD8091870008958DE690E09093AC
:100C20008B0080938A000895CF93DF93EC01CB0172
:100C30007983688363E070E01FD35CD39B838A83EE
:100C40001D8281E08C8382E08E83DF91CF910895B5
:100C5000FC01CB016081718186179707F0F463E096
:100C600070E00AD35481A281B381A80FB91FA50FE8
:100C7000B11D3C933581A281B381A80FB91FA30F89
:100C8000B11D2C9326810280F381E02DE80FF91F1E
:100C9000E20FF11D408380E0089581E00895EF9216
:100CA000FF920F931F93FC01A185B2858C919385D0
:100CB000892B8C93E184F284078110858081918156
:100CC00063E070E0D9D2628173812385AC01CF01EA
:100CD0002DD01F910F91FF90EF900895FC0182811C
:100CE0009381A0C3DC0170E0FB01E75CFE4FE4915F
:100CF0001B96EC931B97615C7E4FFB018491E82F60
:100D0000F0E0E95BFE4F849190E018969C938E93FF
:100D10001797FB016491E62FF0E0E75BFE4FE4914B
:100D2000F0E01A96FC93EE93199708950F931F9392
:100D3000D8019C91822F80958923292B3FB7F89465
:100D4000FB01460F571FE417F50789F0919168E002
:100D50002C9300C097FF8C93990F000000C000C037
:100D600000C008F48C9300C06A9591F7ECCF3FBFA8
:100D70001F910F91089580938C000895863008F09C
:100D8000865030918C0027B1932F9295990F990F2F
:100D9000907C2F72922B32FB332730F93295307FC3
:100DA000932B97B997B1907F982B97B9369A36992C
:100DB000FECF84B195B10895CF93DF9390E0FC010D
:100DC000E75CFE4F2491FC01E15CFE4F8491882397
:100DD00039F190E0FC01E75BFE4FA491B0E0FC012B
:100DE000E95BFE4F8491611106C09FB7F8948C9126
:100DF0002095822313C0623069F4C82FD0E09FB7DA
:100E0000F8948C91322F309583238C938881822B98
:100E1000888305C09FB7F8948C91822B8C939FBFD9
:100E2000DF91CF910895A82FB0E0FD01E75CFE4F60
:100E30009491FD01E15CFE4FE491EE2311F18111EB
:100E400003C08AB58F7304C0813021F48AB58F7CCA
:100E50008ABD05C0843019F48CB58F7C8CBDF0E060
:100E6000E95BFE4FA491B0E02FB7611105C0F89483
:100E70008C919095892303C0F8948C91892B8C9345
:100E80002FBF0895282F30E0F901E75CFE4F9491C1
:100E9000F901E15CFE4FE491EE23E1F0811103C022
:100EA0008AB58F7304C0813021F48AB58F7C8ABDE6
:100EB00005C0843019F48CB58F7C8CBDF0E0EB5B01
:100EC000FE4FE491F0E02081292381E090E021F4BD
:100ED00080E0089580E090E008950F931F93CF93F2
:100EE000DF93EC018B01F80161918F01662341F0E2
:100EF000E881F9810190F081E02DCE010995F3CFD1
:100F0000DF91CF911F910F910895EF92FF920F9370
:100F10001F93CF93DF937C018A01EB01060F171F0C
:100F2000C017D10751F06991D701ED91FC91019063
:100F3000F081E02DC7010995F3CFDF91CF911F918B
:100F40000F91FF90EF90089559D0FEDAB9DBFECFF4
:100F500083B7887F83BF8AB58C7F81608ABD83B762
:100F6000877F83BF83B7887F836083BF089578942A
:100F70001F920F920FB60F9211242F933F938F93CE
:100F80009F93AF93BF9380918E0090918F00A0911B
:100F90009000B091910030918D002CE7230F2D37F8
:100FA00028F02FEF230F0196A11DB11D20938D0076
:100FB00080938E0090938F00A0939000B093910047
:100FC0008091920090919300A0919400B09195002F
:100FD0000196A11DB11D8093920090939300A09360
:100FE0009400B0939500BF91AF919F918F913F91E5
:100FF0002F910F900FBE0F901F901895789480B787
:10100000806880BF80B7806480BF8CB580648CBDF1
:101010008FEF8DBD80B7807F876080BF89B7846088
:1010200089BF96DF86B1876086B9379A089598D0D0
:1010300088F09F5790F0B92F9927B751A0F0D1F0C1
:10104000660F771F881F991F1AF0BA95C9F712C04B
:10105000B13081F09FD0B1E008959CC0672F782F08
:101060008827B85F39F0B93FCCF3869577956795B7
:10107000B395D9F73EF490958095709561957F4F23
:101080008F4F9F4F0895E89409C097FB3EF49095C9
:101090008095709561957F4F8F4F9F4F9923A9F051
:1010A000F92F96E9BB279395F695879577956795E0
:1010B000B795F111F8CFFAF4BB0F11F460FF1BC024
:1010C0006F5F7F4F8F4F9F4F16C0882311F096E9B7
:1010D00011C0772321F09EE8872F762F05C0662365
:1010E00071F096E8862F70E060E02AF09A95660F1E
:1010F000771F881FDAF7880F9695879597F90895D7
:1011000097F99F6780E870E060E008959FEF80ECBA
:10111000089500240A94161617061806090608955D
:1011200000240A9412161306140605060895092EC3
:101130000394000C11F4882352F0BB0F40F4BF2B32
:1011400011F460FF04C06F5F7F4F8F4F9F4F089572
:1011500057FD9058440F551F59F05F3F71F0479568
:10116000880F97FB991F61F09F3F79F0879508954D
:10117000121613061406551FF2CF4695F1DF08C06C
:10118000161617061806991FF1CF86957105610589
:1011900008940895E894BB2766277727CB0197F931
:1011A00008950AD0C4CFB5DF28F0BADF18F0952330
:1011B00009F0A6CFABCFEFCFCBDFA8F39923D9F3BC
:1011C0005523C9F3950F50E0551FAA27EE27FF2797
:1011D000BB2700240894679520F4E20FF31FB41F87
:1011E0000A1E220F331F441FAA1F6695A9F7779581
:1011F00030F4F30FB41F0A1E121E08F46395330F68
:10120000441FAA1F221F769599F7879520F4B40FE3
:101210000A1E121E631F440FAA1F221F331F86952A
:10122000A9F7862F712D602D11249F5750408AF009
:10123000E1F088234AF0EE0FFF1FBB1F661F771FE8
:10124000881F91505040A9F79E3F510570F058CF2C
:10125000A2CF5F3FECF3983EDCF3869577956795D8
:10126000B795F795E7959F5FC1F7FE2B880F911D06
:101270009695879597F908950024552704C0080E80
:10128000591F880F991F009729F076956795B8F335
:101290007105B9F7802D952F089597FB072E16F449
:1012A000009406D077FD08D00BD007FC05D03EF4A3
:1012B000909581959F4F0895709561957F4F089502
:1012C000AA1BBB1B51E107C0AA1FBB1FA617B7076C
:1012D00010F0A61BB70B881F991F5A95A9F7809588
:1012E0009095BC01CD010895EE0FFF1F0590F4917C
:1012F000E02D0994CF93DF938230910510F482E0C2
:1013000090E0E091D600F091D70020E030E0A0E03E
:10131000B0E0309739F14081518148175907B8F052
:101320004817590771F482819381109729F0139619
:101330009C938E9312972CC09093D7008093D600E5
:1013400027C02115310531F04217530718F0A901C4
:10135000DB0101C0EF019A01BD01DF010280F381D1
:10136000E02DD7CF21153105F9F0281B390B24309A
:10137000310580F48A819B816115710521F0FB01A3
:101380009383828304C09093D7008093D600FE019C
:10139000329644C0FE01E20FF31F819391932250D5
:1013A0003109398328833AC02091D4003091D50087
:1013B000232B41F420916200309163003093D500DB
:1013C0002093D400209160003091610021153105F7
:1013D00041F42DB73EB74091640050916500241B45
:1013E000350BE091D400F091D500E217F307A0F49B
:1013F0002E1B3F0B2817390778F0AC014E5F5F4F6B
:101400002417350748F04E0F5F1F5093D5004093C7
:10141000D4008193919302C0E0E0F0E0CF01DF912E
:10142000CF910895CF93DF93009709F487C0FC0113
:10143000329713821282C091D600D091D7002097A4
:1014400081F420813181280F391F8091D40090913F
:10145000D5008217930779F5F093D500E093D40077
:101460006DC0DE0120E030E0AE17BF0750F41296E9
:101470004D915C9113979D014115510509F1DA01D8
:10148000F3CFB383A28340815181840F951F8A17C4
:101490009B0771F48D919C911197840F951F029673
:1014A0009183808312968D919C911397938382836D
:1014B0002115310529F4F093D700E093D6003EC002
:1014C000D9011396FC93EE9312974D915D91A40F61
:1014D000B51FEA17FB0779F480819181840F951F6E
:1014E0000296D90111969C938E93828193811396D3
:1014F0009C938E931297E0E0F0E08A819B810097A5
:1015000019F0FE01EC01F9CFCE0102962881398154
:10151000820F931F2091D4003091D50028173907EE
:1015200069F4309729F41092D7001092D60002C0C7
:1015300013821282D093D500C093D400DF91CF9153
:10154000089511E0C0E5D1E003C0FE01CFDE229690
:0A155000C235D107D1F7F894FFCFA0
:10155A000000D80080007DFF5A00000000CC056D15
:04156A0007850700EA
:00000001FF
