:100000008EC0B2C0DEC0B0C0A3C5AEC0ADC0ACC073
:10001000ABC0AAC0A9C0A8C0A7C0A6C0A5C02A2BB3
:1000200028000000000000000000000000000000A8
:100030000029000000002C9EB4A0A1A2A434A6A711
:10004000A5AE362D3738271E1F2021222324252632
:10005000B333B62EB7B89F8485868788898A8B8C00
:100060008D8E8F909192939495969798999A9B9C48
:100070009D2F3130A3AD350405060708090A0B0C86
:100080000D0E0F101112131415161718191A1B1C28
:100090001DAFB1B0B505010906A101050719E02999
:1000A000E715002501750195088102950175082560
:1000B00065190029658100C0090222000101008044
:1000C00032090400000103010100092101010001BE
:1000D0002223000705810308000A12011001000015
:1000E0000008C016DB2700010102000110034400D4
:1000F0006900670069004B00650079001C0364001B
:100100006900670069007300740075006D0070007D
:100110002E0063006F006D0004030904B702112470
:100120001FBECFE5D2E0DEBFCDBF10E0A0E6B0E05D
:10013000E2EBFCE002C005900D92A237B107D9F7BF
:1001400020E0A2E7B0E001C01D92A93BB207E1F7B1
:1001500011E0CEE1D1E003C02297FE01A4D5CC315D
:10016000D107D1F7E2D4A3C54BCFA82FB92F80E098
:1001700090E041E050EA609530E009C02D9182277F
:100180009795879510F084279527305EC8F36F5FA9
:10019000A8F30895EADF8D939D930895A6E088273C
:1001A0009927AA9569F00197E1F3B399FCCFB39B26
:1001B000FECF81E09927A6B3019611F0A871D9F777
:1001C0000895CF93CFB7CF93C395B39BE9F7B39B74
:1001D0000BC0B39B09C0B39B07C0B39B05C0B39BC7
:1001E00003C0B39B01C0D5C00F92DF93C0919C00A8
:1001F000DD27CD55DF4F012EB39B03C0DF910F905C
:10020000E6CF2F930F931F934F932FEF4F6F06B3AC
:1002100003FB20F95F933F9350E03BE065C016B3CA
:100220000126502953FDC89556B3012703FB25F934
:100230002F7306B3B1F05027102713FB26F906B22F
:100240002230F0F000C016B3012703FB27F9012686
:10025000502906B22430E8F54F77206816B3000025
:10026000F6CF50274F7D206206B2102F000000C04D
:1002700006B300265029102713FB26F906B2E2CF59
:100280004F7B06B3206400C0DACF012650291871D5
:1002900006B269F14E7F2160012F16B328C00026F7
:1002A00050294D7F06B22260102F29C00126502907
:1002B0004B7F06B22460012F2DC016B301265029B2
:1002C000477F2860000006B22EC04F7E06B3206133
:1002D00030C0422706B3499300265029102706B2A2
:1002E0004FEF13FB20F9297F16B379F2187159F1FA
:1002F0000126502906B2012703FB21F9237F06B30B
:1003000071F2002650293150D0F006B2102713FBAD
:1003100022F9277E16B351F201265029012703FB4B
:1003200006B223F92F7C49F2000006B3102713FB15
:1003300024F90026502906B22F7939F270CF10E245
:100340001ABF002719C03B503195C31BD04010E2A3
:100350001ABF0881033C09F10B34F9F020919A008F
:100360001981110F1213EDCF4A81441F093651F143
:100370000D3211F0013E29F70093A1003F915F91EA
:100380004F911F910F912F91DF910F90CAB7C5FD2B
:100390001BCFCF91CFBFCF9118952091A1002223E1
:1003A00069F310919F00112379F534307AF130937D
:1003B0009F0020939B0010919C003BE0311B3093E9
:1003C0009C0024C000919F000130F4F40AE54F70B6
:1003D00049F43091670034FD1AC000936700C3E808
:1003E000D0E019C030918E0034FD11C000938E0012
:1003F000CFE8D0E010C0052710E000C021C00527DD
:1004000010E0C89508BB14C03AE501C032ED032ED8
:10041000C0E0D0E032E017B31861C39A08B317BB4D
:1004200058E120E84FEF20FF052708BB27951795D7
:100430001C3F28F700004552B0F720FF05272795FD
:1004400008BB17951C3FB8F629913A9561F7077ECE
:100450001091A000110F08BBC250D04011F01093B2
:100460009A0010E21ABF086017B3177E402F477E2C
:1004700054E05A95F1F708BB17BB48BB7FCF0F93E9
:100480001F93CF93DF9300D0CDB7DEB78C0180915F
:100490008E0084FD0CC04A836983E7D080E990E533
:1004A0000197F1F700C0000069814A81F0CFF8019F
:1004B0004283638362E0C80102960F900F90DF9140
:1004C000CF911F910F91ADC0CF93DF93EC01E62F39
:1004D000F0E0EA5EFF4F6491262F30E0220F232FD9
:1004E000221F330B232B11F040E201C040E06F7755
:1004F000CE01C5DF40E060E0CE01C1DF81E090E0E9
:10050000DF91CF910895FC0184E790E090939E00E5
:1005100080939D0080818076803231F481818A30A1
:1005200019F483818093760080E0089508950F93F5
:100530001F93CF93DF930AE010E0C0E0D0E081E0AA
:10054000B3D1C80FD91F01501109C9F7CE016AE014
:1005500070E05ED3CB01DF91CF911F910F91089591
:10056000E6DF4AE050E0BC0182E790E0D0C28CE6D2
:1005700090E09093730080937200F894BB9A27EAFE
:1005800086E99CE0215080409040E1F700C00000E7
:10059000BB987FD17894109275001092740062E03D
:1005A00084E790E03EC0DF92EF92FF920F931F939B
:1005B000CF93DF93C8E0D0E0F12C80E8E82EDF2C69
:1005C000DE0CD1BEEBDD8C01043389E018070CF49E
:1005D000FD2CE694219799F78FEF8F0D81BFCF2DDA
:1005E000D0E0219681B790E0C817D9078CF0D6DD0E
:1005F0008453994097FF03C0919581959109801785
:10060000910714F4F1B68C0181B78F5F81BFEACFF7
:10061000F1BEDF91CF911F910F91FF90EF90DF908E
:100620000895CF93C62F20918E0024FF07C02091FC
:100630008F0038E8232720938F0003C02AE52093FA
:100640008E00DC01E0E9F0E09C2F9E0F8D918193FC
:10065000892F8E1B1816D4F36C2F80E990E09ADD59
:10066000CC5FC0938E00CF910895CF93DF9380919C
:100670009F00835087FDA8C090919C0020919B0013
:100680002D3209F09FC0883009F09CC0CCE0D0E04A
:10069000C91BD109CD55DF4F83EC809383008AE5D8
:1006A00080936700109278008881807619F0CE01DF
:1006B0002ADF7FC09A8110928C008981811106C047
:1006C00010928D002CE830E082E06FC0853019F484
:1006D0009093A00067C0863009F04EC08B818130B6
:1006E00041F48AED90E090939E0080939D0082E11A
:1006F0003FC0823041F488EB90E090939E0080935D
:100700009D0082E235C08330F1F4911108C088E188
:1007100091E090939E0080939D0084E029C09130E9
:1007200041F48CEF90E090939E0080939D008CE1CB
:100730001FC09230E1F48CEE90E090939E00809385
:100740009D0080E115C0813241F48AEC90E09093E5
:100750009E0080939D0089E00BC0823241F485E9C0
:1007600090E090939E0080939D0083E201C080E022
:1007700090E4909378001DC0883069F0893019F4B6
:100780009093A2000FC08A3049F08B3059F48BE46B
:1007900080938F0007C022EA30E002C02CE830E0EE
:1007A00081E003C02CE830E080E030939E0020938D
:1007B0009D009F81911104C09E81981708F4892F94
:1007C0008093660010929F008091670084FF46C06E
:1007D000809166008F3F09F441C0C82F893008F02E
:1007E000C8E08C1B809366008091830098E889277D
:1007F00080938300CC2331F120919D0030919E00A5
:100800008091780086FF0BC0A4E8B0E0F9018C2F3E
:100810008A0F94919D9331968A13FBCF09C0D90119
:10082000E4E8F0E08C2F8E0F9D9191938E13FCCF16
:100830008FEF8C0F90E00196820F931F90939E0094
:1008400080939D006C2F84E890E0A4DCCC5FCC30DA
:1008500019F08FEF80936600C093670084E196B330
:10086000987131F48150D9F71092A00010929A003B
:10087000C1E08111C0E0809177008C1739F0C1117F
:1008800003C0F89490DE7894C0937700DF91CF9105
:100890000895AC9A8BB780628BBF8BE480938F00F6
:1008A0008AE580938E000895863008F08650309156
:1008B000790027B1932F9295990F990F907C2F7201
:1008C000922B32FB332730F93295307F932B97B937
:1008D00097B1907F982B97B9369A3699FECF84B10D
:1008E00095B108950F931F93CF93DF93EC018B0184
:1008F000F80161918F01662341F0E881F98101904F
:10090000F081E02DCE010995F3CFDF91CF911F91BA
:100910000F910895EF92FF920F931F93CF93DF9360
:100920007C018A01EB01060F171FC017D10751F098
:100930006991D701ED91FC910190F081E02DC70103
:100940000995F3CFDF91CF911F910F91FF90EF9019
:100950000895DC01ED91FC910190F081E02D642F70
:1009600009944F925F926F927F928F929F92AF9273
:10097000BF92CF92DF92EF92FF920F931F93CF938C
:10098000DF93CDB7DEB7A0970FB6F894DEBF0FBEEA
:10099000CDBF5C014115510561057105D9F440E3F6
:1009A00050E060E070E0A0960FB6F894DEBF0FBE96
:1009B000CDBFDF91CF911F910F91FF90EF90DF900E
:1009C000CF90BF90AF909F908F907F906F905F90EF
:1009D0004F90BFCF8E010F5F1F4FC12CD12C7601DE
:1009E0004801422E512C612C712C8FEFC81AD80A65
:1009F000E80AF80ACB01BA01A30192011CD1CA018D
:100A0000F80161938F01A901BC01411551056105F0
:100A1000710559F7F1E0CF1AD108E108F108F401A6
:100A2000EC0DFD1D80818A3010F440E301C047E3E6
:100A3000480F552747FD5095652F752FC50189DF54
:100A400081E0C81AD108E108F108EFEFCE16DE0602
:100A5000EE06FE0621F7A0960FB6F894DEBF0FBE95
:100A6000CDBFDF91CF911F910F91FF90EF90DF905D
:100A7000CF90BF90AF909F908F907F906F905F903E
:100A80004F900895CF92DF92EF92FF92CF93DF9332
:100A9000EC016A017B012115310539F4DF91CF9119
:100AA000FF90EF90DF90CF9054CF2A30310591F432
:100AB00077FF0FC020E030E04DE250E060E070E0F2
:100AC000E1DFF094E094D094C094C11CD11CE11CEF
:100AD000F11C2AE0B701A601CE01DF91CF91FF9072
:100AE000EF90DF90CF903DCFCF93DF93EC014DE0BF
:100AF00050E060E070E02DDF4AE050E060E070E040
:100B0000CE0127DF82E090E0DF91CF910895CF936F
:100B1000DF93EC019A01AB01662757FD6095762FB4
:100B2000B1DFCE01DF91CF91DFCF59D0FFDC18DDEF
:100B3000FECF83B7887F83BF8AB58C7F81608ABDF3
:100B400083B7877F83BF83B7887F836083BF089520
:100B500078941F920F920FB60F9211242F933F9308
:100B60008F939F93AF93BF9380917B0090917C0074
:100B7000A0917D00B0917E0030917A002CE7230F88
:100B80002D3728F02FEF230F0196A11DB11D2093C3
:100B90007A0080937B0090937C00A0937D00B093BB
:100BA0007E0080917F0090918000A0918100B091A3
:100BB00082000196A11DB11D80937F00909380005B
:100BC000A0938100B0938200BF91AF919F918F91CC
:100BD0003F912F910F900FBE0F901F901895789412
:100BE00080B7806880BF80B7806480BF8CB5806428
:100BF0008CBD8FEF8DBD80B7807F876080BF89B748
:100C0000846089BF96DF86B1876086B9379A089578
:100C100097FB072E16F4009406D077FD08D02DD050
:100C200007FC05D03EF4909581959F4F08957095EF
:100C300061957F4F0895A1E21A2EAA1BBB1BFD01EF
:100C40000DC0AA1FBB1FEE1FFF1FA217B307E407AB
:100C5000F50720F0A21BB30BE40BF50B661F771F03
:100C6000881F991F1A9469F76095709580959095E3
:100C70009B01AC01BD01CF010895AA1BBB1B51E133
:100C800007C0AA1FBB1FA617B70710F0A61BB70BFC
:100C9000881F991F5A95A9F780959095BC01CD01A1
:100CA0000895EE0FFF1F0590F491E02D0994F8943C
:020CB000FFCF74
:100CB2000000B9008000FF5A0000000064027204C4
:020CC2008A04A2
:00000001FF
