:1000000018C03CC03BC03AC087C138C037C036C0FA
:1000100035C034C033C032C031C030C02FC001023F
:100020000408102001010101010100380037CE0051
:10003000D30011241FBECFE5D2E0DEBFCDBF20E04C
:10004000A6E6B0E001C01D92A338B207E1F710E0C8
:10005000A0E6B0E0E0E2FAE002C005900D92A6361C
:10006000B107D9F710E0C0E3D0E003C02297FE014A
:10007000A0D3CE32D107D1F760D2C6C4C1CFCF92C0
:10008000DF92EF92FF920F931F93CF93DF93D62FC0
:10009000C42F68017901682F70E080E090E07FD282
:1000A000A7019601E0D24DD2609373006D2F70E0EE
:1000B00080E090E074D2A7019601D5D242D260933D
:1000C00072006C2F70E080E090E069D2A701960189
:1000D000CAD237D260937400E12CF12C20917200C7
:1000E0003091730040917400B70186E690E072D0C1
:1000F00064E670E080E090E07AD186E690E091D00E
:100100008FEFE81AF80A88E0E816F10439F7DF9172
:10011000CF911F910F91FF90EF90DF90CF900895B6
:100120000F931F9361E081E0A2D161E081E0D6D11D
:1001300080E09AD160E086E690E096D000E010E0A2
:1001400020E83FE340E060E48FEF99DF1F910F91DB
:1001500008950F931F9300E010E020E83FE340E094
:1001600060E08FEF8CDF00E010E020E83FE340E04C
:100170006FEF80E084DF00E010E020E83FE34FEF26
:1001800060E080E07CDF00E010E020E83FE34FEF3C
:100190006FEF8FEF74DF1F910F91089568E070E0AB
:1001A00086E690E003C086E690E05AC0CF93DF93E6
:1001B000EC01CB017983688363E070E0E7D2FDD284
:1001C0009B838A831D8281E08C8382E08E83DF9112
:1001D000CF910895FC01CB0160817181861797074B
:1001E000F0F463E070E0D2D25481A281B381A80F11
:1001F000B91FA50FB11D3C933581A281B381A80F12
:10020000B91FA30FB11D2C9326810280F381E02D2D
:10021000E80FF91FE20FF11D408380E0089581E0AF
:100220000895EF92FF920F931F93FC01A185B28571
:100230008C919385892B8C93E184F28407811085BE
:100240008081918163E070E0A1D262817381238516
:10025000AC01CF012DD01F910F91FF90EF90089529
:10026000FC018281938141C3DC0170E0FB01E25E0D
:10027000FF4FE4911B96EC931B976C5D7F4FFB0146
:100280008491E82FF0E0E65DFF4F849190E01896AE
:100290009C938E931797FB016491E62FF0E0E45D49
:1002A000FF4FE491F0E01A96FC93EE9319970895AE
:1002B0000F931F93D8019C91822F80958923292B1E
:1002C0003FB7F894FB01460F571FE417F50789F075
:1002D000919168E02C9300C097FF8C93990F0000D8
:1002E00000C000C000C008F48C9300C06A9591F76C
:1002F000ECCF3FBF1F910F91089583B7887F83BFD5
:100300008AB58C7F81608ABD83B7877F83BF83B7BF
:10031000887F836083BF089578941F920F920FB6F1
:100320000F9211242F933F938F939F93AF93BF937B
:100330008091760090917700A0917800B09179003B
:10034000309175002CE7230F2D3728F02FEF230F66
:100350000196A11DB11D20937500809376009093A6
:100360007700A0937800B093790080917A00909103
:100370007B00A0917C00B0917D000196A11DB11D74
:1003800080937A0090937B00A0937C00B0937D00D3
:10039000BF91AF919F918F913F912F910F900FBE81
:1003A0000F901F9018953FB7F89480917A00909124
:1003B0007B00A0917C00B0917D002FB508B602FEB5
:1003C00005C02F3F19F00196A11DB11D3FBF662743
:1003D000782F892F9A2F620F711D811D911D42E088
:1003E000660F771F881F991F4A95D1F70895CF92FE
:1003F000DF92EF92FF92CF93DF936B017C01D3DF0B
:10040000EB01C114D104E104F10471F0CCDF6C1BE9
:100410007D0B683E7340A8F381E0C81AD108E1085B
:10042000F108C851DC4FEDCFDF91CF91FF90EF90F5
:10043000DF90CF900895789480B7806880BF80B7B0
:10044000806480BF8CB580648CBD8FEF8DBD80B71C
:10045000807F876080BF89B7846089BF4EDF86B1A7
:10046000876086B9379A089580937E000895CF9368
:10047000DF9390E0FC01E25EFF4F2491FC01EC5D14
:10048000FF4F8491882339F190E0FC01E45DFF4F38
:10049000A491B0E0FC01E65DFF4F8491611106C0BC
:1004A0009FB7F8948C912095822313C0623069F431
:1004B000C82FD0E09FB7F8948C91322F30958323CA
:1004C0008C938881822B888305C09FB7F8948C9188
:1004D000822B8C939FBFDF91CF910895A82FB0E01E
:1004E000FD01E25EFF4F9491FD01EC5DFF4FE49151
:1004F000EE2311F1811103C08AB58F7304C08130DE
:1005000021F48AB58F7C8ABD05C0843019F48CB57E
:100510008F7C8CBDF0E0E65DFF4FA491B0E02FB77B
:10052000611105C0F8948C919095892303C0F894CB
:100530008C91892B8C932FBF08957DDFF1DD09DE2F
:10054000FECF70D088F09F5790F0B92F9927B75100
:10055000A0F0D1F0660F771F881F991F1AF0BA9587
:10056000C9F712C0B13081F077D0B1E0089574C0FE
:10057000672F782F8827B85F39F0B93FCCF386957D
:1005800077956795B395D9F73EF4909580957095DA
:1005900061957F4F8F4F9F4F0895E89409C097FB57
:1005A0003EF490958095709561957F4F8F4F9F4F4A
:1005B0009923A9F0F92F96E9BB279395F69587958E
:1005C00077956795B795F111F8CFFAF4BB0F11F451
:1005D00060FF1BC06F5F7F4F8F4F9F4F16C08823F8
:1005E00011F096E911C0772321F09EE8872F762F2E
:1005F00005C0662371F096E8862F70E060E02AF06F
:100600009A95660F771F881FDAF7880F969587955A
:1006100097F9089557FD9058440F551F59F05F3FC3
:1006200071F04795880F97FB991F61F09F3F79F014
:1006300087950895121613061406551FF2CF469596
:10064000F1DF08C0161617061806991FF1CF869518
:100650007105610508940895E894BB2766277727FC
:10066000CB0197F908950AD080C071D028F076D0D8
:1006700018F0952309F062C067C0EFCFCBDFA8F375
:100680009923D9F35523C9F3950F50E0551FAA2795
:10069000EE27FF27BB2700240894679520F4E20F7C
:1006A000F31FB41F0A1E220F331F441FAA1F669593
:1006B000A9F7779530F4F30FB41F0A1E121E08F441
:1006C0006395330F441FAA1F221F769599F78795CC
:1006D00020F4B40F0A1E121E631F440FAA1F221F0C
:1006E000331F8695A9F7862F712D602D11249F57F2
:1006F00050408AF0E1F088234AF0EE0FFF1FBB1F45
:10070000661F771F881F91505040A9F79E3F5105E3
:1007100070F014C0A2CF5F3FECF3983EDCF38695F7
:1007200077956795B795F795E7959F5FC1F7FE2B8E
:10073000880F911D9695879597F9089597F99F676A
:1007400080E870E060E008959FEF80EC0895002459
:100750000A941616170618060906089500240A9426
:1007600012161306140605060895092E0394000CAC
:1007700011F4882352F0BB0F40F4BF2B11F460FF3B
:1007800004C06F5F7F4F8F4F9F4F08950024552700
:1007900004C0080E591F880F991F009729F07695FD
:1007A0006795B8F37105B9F7802D952F0895EE0F71
:1007B000FF1F0590F491E02D0994CF93DF938230D1
:1007C000910510F482E090E0E0918100F0918200C8
:1007D00020E030E0A0E0B0E0309739F14081518175
:1007E00048175907B8F04817590771F48281938167
:1007F000109729F013969C938E9312972CC0909388
:1008000082008093810027C02115310531F0421705
:10081000530718F0A901DB0101C0EF019A01BD01E6
:10082000DF010280F381E02DD7CF21153105F9F0EA
:10083000281B390B2430310580F48A819B81611596
:10084000710521F0FB019383828304C090938200A1
:1008500080938100FE01329644C0FE01E20FF31F37
:100860008193919322503109398328833AC0209192
:100870007F0030918000232B41F420916200309161
:1008800063003093800020937F00209160003091BE
:1008900061002115310541F42DB73EB74091640048
:1008A00050916500241B350BE0917F00F091800092
:1008B000E217F307A0F42E1B3F0B2817390778F037
:1008C000AC014E5F5F4F2417350748F04E0F5F1F96
:1008D0005093800040937F008193919302C0E0E0A9
:1008E000F0E0CF01DF91CF910895CF93DF93009790
:1008F00009F487C0FC01329713821282C0918100F3
:10090000D0918200209781F420813181280F391FF6
:1009100080917F00909180008217930779F5F09382
:100920008000E0937F006DC0DE0120E030E0AE1774
:10093000BF0750F412964D915C9113979D0141159C
:10094000510509F1DA01F3CFB383A28340815181CC
:10095000840F951F8A179B0771F48D919C911197B5
:10096000840F951F02969183808312968D919C919E
:100970001397938382832115310529F4F093820024
:10098000E09381003EC0D9011396FC93EE93129739
:100990004D915D91A40FB51FEA17FB0779F4808193
:1009A0009181840F951F0296D90111969C938E9385
:1009B0008281938113969C938E931297E0E0F0E0EE
:1009C0008A819B81009719F0FE01EC01F9CFCE01DD
:1009D000029628813981820F931F20917F003091E8
:1009E00080002817390769F4309729F410928200A3
:1009F0001092810002C013821282D0938000C093B3
:100A00007F00DF91CF91089510E0C0E3D0E003C0F4
:100A1000FE01CFDE2296C233D107D1F7F894FFCF83
:060A2000000083008000CD
:00000001FF
