:1000000020C044C043C042C0ECC140C03FC03EC05D
:100010003DC03CC03BC03AC039C038C037C065C0E5
:1000200069C06EC072C076C07AC07EC082C0010254
:1000300004081020010101010101003800373301DB
:10004000380111241FBECFE5D2E0DEBFCDBF20E0D6
:10005000A6E6B0E001C01D92A038B207E1F710E0BB
:10006000A0E6B0E0ECEDF8E002C005900D92A636F7
:10007000B107D9F710E0C0E4D0E003C02297FE0139
:10008000F6D2CE33D107D1F7DBD21CC4B9CFFF9261
:100090000F931F93CF93DF93082FF62E142FC0E0FA
:1000A000D0E02F2D302F412FBE0186E690E0F7D013
:1000B0002196C830D105A9F7DF91CF911F910F91FB
:1000C000FF900895362F542F422F682F70E0252F70
:1000D00086E690E0E4D0089590E0FC013197E830A6
:1000E000F10560F5E15FFF4F09942EE24DE46EEEFD
:1000F00081E004C022E949EB6DE180E0E3DF22C04A
:1001000025E04DEA60EB82E0F9CF22E840E06FEFB6
:1001100083E0F4CF2BE243E46CE684E0EFCF29EEFA
:1001200048E06FEF85E0EACF2BE243E46CE687E03E
:10013000E5CF22E840E06FEF86E0E0CF40E060E00E
:1001400080E0A5DF86E690E0D1C0CF93DF9387E023
:10015000F3D1EC0187E0F0D18C0F9D1F97FD019644
:1001600095958795DF91CF9108951F93CF93DF9356
:1001700010E0EBDFEC01E9DF8C179D07C9F71F5F8B
:100180001330B8F3893D21E09207A4F4843C21E0C8
:1001900092079CF5863F910544F4813E91054CF50C
:1001A0008A5B9109459718F11EC08C58914045977C
:1001B00040F119C08F3C22E092074CF48A3B22E0C8
:1001C00092079CF4885892404597A8F00CC0863658
:1001D00023E0920744F08B3723E0920784F08058A5
:1001E0009340459780F080E00FC082E00DC088E02A
:1001F0000BC084E009C086E007C083E005C085E04D
:1002000003C087E001C081E0DF91CF911F91089585
:10021000CF93ABDFC82F60DFA8DF8C1306C064E18B
:1002200070E080E090E048D1F7CF8FEF55DF8C2F62
:10023000CF91089561E081E09DD161E081E0D1D16D
:1002400080E077D160E086E690E073D040E060E047
:1002500080E01DDF86E690E049D068EE73E080E044
:1002600090E02AC1D5CF68E070E086E690E003C058
:1002700086E690E05AC0CF93DF93EC01CB017983FF
:10028000688363E070E0E0D1F6D19B838A831D82AE
:1002900081E08C8382E08E83DF91CF910895FC0111
:1002A000CB016081718186179707F0F463E070E0FD
:1002B000CBD15481A281B381A80FB91FA50FB11D65
:1002C0003C933581A281B381A80FB91FA30FB11D43
:1002D0002C9326810280F381E02DE80FF91FE20FB5
:1002E000F11D408380E0089581E00895EF92FF9230
:1002F0000F931F93FC01A185B2858C919385892B67
:100300008C93E184F284078110858081918163E080
:1003100070E09AD1628173812385AC01CF012DD029
:100320001F910F91FF90EF900895FC0182819381BE
:100330003AC2DC0170E0FB01E25DFF4FE4911B96E5
:10034000EC931B976C5C7F4FFB018491E82FF0E0EE
:10035000E65CFF4F849190E018969C938E931797DC
:10036000FB016491E62FF0E0E45CFF4FE491F0E0E4
:100370001A96FC93EE93199708950F931F93D80143
:100380009C91822F80958923292B3FB7F894FB01FC
:10039000460F571FE417F50789F0919168E02C93F9
:1003A00000C097FF8C93990F000000C000C000C0F0
:1003B00008F48C9300C06A9591F7ECCF3FBF1F9172
:1003C0000F91089583B7887F83BF8AB58C7F816042
:1003D0008ABD83B7877F83BF83B7887F836083BFEE
:1003E000089578941F920F920FB60F9211242F93B5
:1003F0003F938F939F93AF93BF938091730090919E
:100400007400A0917500B0917600309172002CE7D5
:10041000230F2D3728F02FEF230F0196A11DB11DBB
:10042000209372008093730090937400A0937500E2
:10043000B09376008091770090917800A091790038
:10044000B0917A000196A11DB11D80937700909321
:100450007800A0937900B0937A00BF91AF919F91FB
:100460008F913F912F910F900FBE0F901F90189575
:100470003FB7F8948091770090917800A09179002F
:10048000B0917A002FB508B602FE05C02F3F19F0D3
:100490000196A11DB11D3FBF6627782F892F9A2F86
:1004A000620F711D811D911D42E0660F771F881F2D
:1004B000991F4A95D1F70895CF92DF92EF92FF925C
:1004C000CF93DF936B017C01D3DFEB01C114D10427
:1004D000E104F10471F0CCDF6C1B7D0B683E7340CE
:1004E000A8F381E0C81AD108E108F108C851DC4F2F
:1004F000EDCFDF91CF91FF90EF90DF90CF900895F7
:10050000789480B7806880BF80B7806480BF8CB5E6
:1005100080648CBD8FEF8DBD80B7807F876080BF8A
:1005200089B7846089BF4EDF86B1876086B9379A04
:10053000089580937B000895863008F086503091AE
:100540007B0027B1932F9295990F990F907C2F7272
:10055000922B32FB332730F93295307F932B97B9AA
:1005600097B1907F982B97B9369A3699FECF84B180
:1005700095B10895CF93DF9390E0FC01E25DFF4FCA
:100580002491FC01EC5CFF4F8491882339F190E0C9
:10059000FC01E45CFF4FA491B0E0FC01E65CFF4F7E
:1005A0008491611106C09FB7F8948C9120958223A5
:1005B00013C0623069F4C82FD0E09FB7F8948C91D3
:1005C000322F309583238C938881822B888305C0BA
:1005D0009FB7F8948C91822B8C939FBFDF91CF9122
:1005E0000895A82FB0E0FD01E25DFF4F9491FD0159
:1005F000EC5CFF4FE491EE2311F1811103C08AB549
:100600008F7304C0813021F48AB58F7C8ABD05C008
:10061000843019F48CB58F7C8CBDF0E0E65CFF4F24
:10062000A491B0E02FB7611105C0F8948C9190951A
:10063000892303C0F8948C91892B8C932FBF089544
:100640005FDFF8DD0FDEFECF0024552704C0080E63
:10065000591F880F991F009729F076956795B8F371
:100660007105B9F7802D952F0895EE0FFF1F0590A6
:10067000F491E02D0994CF93DF938230910510F42B
:1006800082E090E0E0917E00F0917F0020E030E099
:10069000A0E0B0E0309739F1408151814817590707
:1006A000B8F04817590771F482819381109729F0A7
:1006B00013969C938E9312972CC090937F008093F7
:1006C0007E0027C02115310531F04217530718F07D
:1006D000A901DB0101C0EF019A01BD01DF01028028
:1006E000F381E02DD7CF21153105F9F0281B390B07
:1006F0002430310580F48A819B816115710521F0D8
:10070000FB019383828304C090937F0080937E00DB
:10071000FE01329644C0FE01E20FF31F81939193D4
:1007200022503109398328833AC020917C003091CE
:100730007D00232B41F420916200309163003093BF
:100740007D0020937C002091600030916100211594
:10075000310541F42DB73EB74091640050916500DA
:10076000241B350BE0917C00F0917D00E217F3072C
:10077000A0F42E1B3F0B2817390778F0AC014E5F11
:100780005F4F2417350748F04E0F5F1F50937D00D1
:1007900040937C008193919302C0E0E0F0E0CF01B0
:1007A000DF91CF910895CF93DF93009709F487C02D
:1007B000FC01329713821282C0917E00D0917F009B
:1007C000209781F420813181280F391F80917C008E
:1007D00090917D008217930779F5F0937D00E09367
:1007E0007C006DC0DE0120E030E0AE17BF0750F4A2
:1007F00012964D915C9113979D014115510509F198
:10080000DA01F3CFB383A28340815181840F951F16
:100810008A179B0771F48D919C911197840F951FF6
:1008200002969183808312968D919C911397938366
:1008300082832115310529F4F0937F00E0937E0037
:100840003EC0D9011396FC93EE9312974D915D91A2
:10085000A40FB51FEA17FB0779F480819181840FFB
:10086000951F0296D90111969C938E938281938154
:1008700013969C938E931297E0E0F0E08A819B811F
:10088000009719F0FE01EC01F9CFCE010296288104
:100890003981820F931F20917C0030917D002817B1
:1008A000390769F4309729F410927F0010927E0086
:1008B00002C013821282D0937D00C0937C00DF912E
:1008C000CF91089510E0C0E4D0E003C0FE01CFDE78
:0C08D0002296C234D107D1F7F894FFCF74
:0608DC0000008000800016
:00000001FF
