:1000000028C04CC04BC04AC07DC348C047C046C092
:1000100045C044C043C042C041C040C03FC06DC0A5
:1000200071C075C079C07DC081C085C089C09CC0C9
:100030009DC09EC09FC0A0C0A1C0A2C0A3C001021D
:100040000408102001010101010100380037C40239
:10005000C90211241FBECFE5D2E0DEBFCDBF21E033
:10006000AAE6B0E001C01D92A438B207E1F710E0A3
:10007000A0E6B0E0E4EBFEE002C005900D92AA36E7
:10008000B107D9F710E0C0E5D0E003C02297FE0128
:1000900046D5CE34D107D1F799D400C7B1CFFF925E
:1000A0000F931F93CF93DF93082FF62E142FC0E0EA
:1000B000D0E02F2D302F412FBE018AE690E080D274
:1000C0002196C830D105A9F7DF91CF911F910F91EB
:1000D000FF900895362F542F422F682F70E0252F60
:1000E0008AE690E06DD2089590E0FC013197E83007
:1000F000F10558F5E15FFF4F099420E04FEF60E014
:1001000081E022C020E040E06FEF80E01DC02FEFD3
:1001100040E060E082E018C020E04FEF6FEF83E046
:1001200013C02FEF4FEF60E084E00EC02FEF4FEFD2
:1001300060E085E009C02FEF4FEF60E087E004C08A
:100140002FEF4FEF60E086E0C5DF8AE690E05FC208
:1001500090E0FC013197E830F105B0F4E95EFF4F23
:1001600020E040E060E0099481E00DC080E00BC039
:1001700082E009C083E007C084E005C085E003C0D9
:1001800087E001C086E0A6DF8AE690E040C2CF9318
:10019000DF9387E06ED3EC0187E06BD38C0F9D1F5C
:1001A00097FD019695958795DF91CF9108951F93BF
:1001B000CF93DF9310E0EBDFEC01E9DF8C179D07B5
:1001C000C9F71F5F1330B8F3893D21E09207A4F40B
:1001D000843C21E092079CF5863F910544F4813EE2
:1001E00091054CF58A5B9109459718F11EC08C5812
:1001F0009140459740F119C08F3C22E092074CF4A2
:100200008A3B22E092079CF4885892404597A8F0D8
:100210000CC0863623E0920744F08B3723E0920728
:1002200084F080589340459780F080E00FC082E0D2
:100230000DC088E00BC084E009C086E007C083E001
:1002400005C085E003C087E001C081E0DF91CF9168
:100250001F910895CF93ABDFC82F7ADFA8DF8C13EF
:1002600006C064E170E080E090E0C3D2F7CF8C2F4D
:100270003BDF8C2FCF9108950F931F93CF93DF9384
:10028000C7E7D0E08091760090E09E01275730408C
:1002900028173907D4F48E0188818530F8F440E0BE
:1002A00060E080E0FCDE8AE690E0B1D16CE271E0D3
:1002B00080E090E09ED22196F801808115DF6CE20B
:1002C00071E080E090E095D2DDCF6CE271E080E0FB
:1002D00090E0DF91CF911F910F918BC2DF91CF9171
:1002E0001F910F9108950F931F93CF93DF9361E0B8
:1002F00081E0DDD261E081E011D380E0B7D260E03F
:100300008AE690E0A7D144E664E684E6C8DE20E011
:1003100040E06FEF86E0DEDE20E04FEF60E087E058
:10032000D9DE8AE690E073D195DF8430E8F3873038
:10033000B9F480E090E09CD58093760007E710E068
:10034000C1E0D0E0CE0194D5F80181938F012196D0
:10035000C115F1E0DF07B1F78FDF109276001EC004
:100360008830E1F440E060E08FEF99DE8AE690E0CB
:100370004ED160E080E090E083D5C1E0D0E06FEF47
:10038000CE017ED52196C11582E0D807C1F740E0A5
:100390006FEF80E084DE8AE690E039D168EE73E0AA
:1003A00080E090E026D220E04FEF60E081E092DE36
:1003B00020E040E06FEF80E08DDE2FEF40E060E076
:1003C00082E088DE20E04FEF6FEF83E083DE20E005
:1003D0004FEF60E084E07EDE20E04FEF60E085E0FC
:1003E00079DE20E04FEF60E086E074DE20E04FEF42
:1003F00060E087E06FDE8AE690E009D168EE73E0A6
:1004000080E090E0DF91CF911F910F91F2C1EF92C8
:10041000FF920F931F93CF93DF931F92CDB7DEB759
:10042000B8D1CB01AAD21091760081E0810F8093E0
:10043000760064E070E080E090E0A6D2E12FF0E08A
:10044000E958FF4F6F5F608317DF40E060E080E0B6
:1004500026DE20E04FEF60E081E03CDE20E040E07F
:100460006FEF80E037DE2FEF40E060E082E032DEC9
:1004700020E04FEF6FEF83E02DDE8AE690E0C7D0FB
:1004800047E7E42E40E0F42E10E08091760090E003
:10049000970127573040281739077CF480E09FEFF9
:1004A000980F943010F0D6DEFACFF70191917F01CA
:1004B000891302C011E0E9CF10E068E572E080E046
:1004C00090E097D140E060E080E0E9DD20E011239A
:1004D000B9F14FEF60E084E0FDDD20E04FEF60E038
:1004E00085E0F8DD20E04FEF60E086E0F3DD20E01E
:1004F0004FEF60E087E0EEDD6091760080E090E015
:100500006983B6D46981681780F180E090E0B8D43F
:1005100007E710E0EE24E394F12CF80161918F01DC
:10052000C7016983A5D46981681711F0C701A8D4F0
:10053000FFEFEF1AFF0AE11481E0F80671F715C02A
:1005400040E06FEF84E0C6DD20E040E06FEF85E043
:10055000C1DD20E040E06FEF86E0BCDD20E040E060
:100560006FEF87E0B7DD109276008AE690E04FD01B
:1005700068EE73E080E090E00F90DF91CF911F91E3
:100580000F91FF90EF9035C168E070E08AE690E04F
:1005900003C08AE690E05AC0CF93DF93EC01CB0111
:1005A0007983688363E070E015D2EBD29B838A8302
:1005B0001D8281E08C8382E08E83DF91CF9108954C
:1005C000FC01CB016081718186179707F0F463E02D
:1005D00070E000D25481A281B381A80FB91FA50F8A
:1005E000B11D3C933581A281B381A80FB91FA30F20
:1005F000B11D2C9326810280F381E02DE80FF91FB5
:10060000E20FF11D408380E0089581E00895EF92AC
:10061000FF920F931F93FC01A185B2858C91938566
:10062000892B8C93E184F2840781108580819181EC
:1006300063E070E0CFD1628173812385AC01CF018B
:100640002DD01F910F91FF90EF900895FC018281B2
:1006500093812FC3DC0170E0FB01E25CFF4FE4916A
:100660001B96EC931B976C5B7F4FFB018491E82FEB
:10067000F0E0E65BFF4F849190E018969C938E9398
:100680001797FB016491E62FF0E0E45BFF4FE491E4
:10069000F0E01A96FC93EE93199708950F931F9329
:1006A000D8019C91822F80958923292B3FB7F894FC
:1006B000FB01460F571FE417F50789F0919168E099
:1006C0002C9300C097FF8C93990F000000C000C0CE
:1006D00000C008F48C9300C06A9591F7ECCF3FBF3F
:1006E0001F910F91089583B7887F83BF8AB58C7F50
:1006F00081608ABD83B7877F83BF83B7887F83602C
:1007000083BF089578941F920F920FB60F92112411
:100710002F933F938F939F93AF93BF9380917701D4
:1007200090917801A0917901B0917A013091760190
:100730002CE7230F2D3728F02FEF230F0196A11D53
:10074000B11D209376018093770190937801A09357
:100750007901B0937A0180917B0190917C01A09105
:100760007D01B0917E010196A11DB11D80937B0199
:1007700090937C01A0937D01B0937E01BF91AF91D6
:100780009F918F913F912F910F900FBE0F901F90CF
:1007900018952FB7F8946091770170917801809146
:1007A000790190917A012FBF08953FB7F894809115
:1007B0007B0190917C01A0917D01B0917E012FB5CC
:1007C00008B602FE05C02F3F19F00196A11DB11D0C
:1007D0003FBF6627782F892F9A2F620F711D811DC9
:1007E000911D42E0660F771F881F991F4A95D1F728
:1007F0000895CF92DF92EF92FF92CF93DF936B0138
:100800007C01D3DFEB01C114D104E104F10471F0E8
:10081000CCDF6C1B7D0B683E7340A8F381E0C81AE7
:10082000D108E108F108C851DC4FEDCFDF91CF913D
:10083000FF90EF90DF90CF900895789480B7806814
:1008400080BF80B7806480BF8CB580648CBD8FEF23
:100850008DBD80B7807F876080BF89B7846089BF86
:1008600042DF86B1876086B9379A089580937F0109
:100870000895863008F0865030917F0127B1932F7C
:100880009295990F990F907C2F72922B32FB332700
:1008900030F93295307F932B97B997B1907F982B91
:1008A00097B9369A3699FECF84B195B10895CF9312
:1008B000DF9390E0FC01E25CFF4F2491FC01EC5BD4
:1008C000FF4F8491882339F190E0FC01E45BFF4FF6
:1008D000A491B0E0FC01E65BFF4F8491611106C07A
:1008E0009FB7F8948C912095822313C0623069F4ED
:1008F000C82FD0E09FB7F8948C91322F3095832386
:100900008C938881822B888305C09FB7F8948C9143
:10091000822B8C939FBFDF91CF910895A82FB0E0D9
:10092000FD01E25CFF4F9491FD01EC5BFF4FE49110
:10093000EE2311F1811103C08AB58F7304C0813099
:1009400021F48AB58F7C8ABD05C0843019F48CB53A
:100950008F7C8CBDF0E0E65BFF4FA491B0E02FB739
:10096000611105C0F8948C919095892303C0F89487
:100970008C91892B8C932FBF0895009721F0BC0197
:1009800080E090E06CC20895CF93DF9300D000D058
:10099000CDB7DEB79B01AC016115710581059105ED
:1009A00059F069833A834B835C8355D229813A811C
:1009B0004B815C8120D003C060E070E0CB010F90E0
:1009C0000F900F900F90DF91CF91089536DF8BDC61
:1009D0001EDDFECF0024552704C0080E591F880FC6
:1009E000991F009729F076956795B8F37105B9F7C7
:1009F000802D952F0895052E97FB16F400940FD0A7
:100A000057FD05D068D007FC02D046F408C05095C9
:100A10004095309521953F4F4F4F5F4F08959095EA
:100A20008095709561957F4F8F4F9F4F0895689483
:100A30000013E894A0E0B0E0EFE1F5E01DC0EFEFB7
:100A4000E7F959016A015E23550FEE08FE2C870174
:100A50009B01AC019E23990F660B762FCB0163D0CF
:100A6000CDB7DEB7EAE024C02F923F924F925F925B
:100A70006F927F928F929F92AF92BF92CF92DF92AE
:100A8000EF92FF920F931F93CF93DF93CDB7DEB713
:100A9000CA1BDB0B0FB6F894DEBF0FBECDBF0994A7
:100AA0002A88398848885F846E847D848C849B84FE
:100AB000AA84B984C884DF80EE80FD800C811B810C
:100AC000AA81B981CE0FD11D0FB6F894DEBF0FBE3B
:100AD000CDBFED010895A1E21A2EAA1BBB1BFD019B
:100AE0000DC0AA1FBB1FEE1FFF1FA217B307E4070D
:100AF000F50720F0A21BB30BE40BF50B661F771F65
:100B0000881F991F1A9469F7609570958095909544
:100B10009B01AC01BD01CF010895EE0FFF1F0590B1
:100B2000F491E02D0994DF93CF939F92A0E49A2E45
:100B30000024D001E001F00116950795F794E794A1
:100B4000D794C794B794A79448F41068A20FB31F22
:100B5000C41FD51FE61FF71F081E191E220F331FC3
:100B6000441F551F661F771F881F991F9A9421F7EE
:100B70009D01AE01BF01C00111249F90CF91DF9173
:100B80000895CF93DF938230910510F482E090E0D6
:100B9000E0918201F091830120E030E0A0E0B0E03C
:100BA000309739F14081518148175907B8F04817FB
:100BB000590771F482819381109729F013969C93C1
:100BC0008E9312972CC0909383018093820127C04B
:100BD0002115310531F04217530718F0A901DB0147
:100BE00001C0EF019A01BD01DF010280F381E02D18
:100BF000D7CF21153105F9F0281B390B24303105E9
:100C000080F48A819B816115710521F0FB0193833A
:100C1000828304C09093830180938201FE01329607
:100C200044C0FE01E20FF31F8193919322503109DA
:100C3000398328833AC02091800130918101232B90
:100C400041F4209162003091630030938101209340
:100C5000800120916000309161002115310541F43F
:100C60002DB73EB74091640050916500241B350BB1
:100C7000E0918001F0918101E217F307A0F42E1BAF
:100C80003F0B2817390778F0AC014E5F5F4F2417F0
:100C9000350748F04E0F5F1F50938101409380014C
:100CA0008193919302C0E0E0F0E0CF01DF91CF911A
:100CB0000895CF93DF93009709F487C0FC01329722
:100CC00013821282C0918201D0918301209781F416
:100CD00020813181280F391F8091800190918101FD
:100CE0008217930779F5F0938101E09380016DC03D
:100CF000DE0120E030E0AE17BF0750F412964D91B0
:100D00005C9113979D014115510509F1DA01F3CF6B
:100D1000B383A28340815181840F951F8A179B075B
:100D200071F48D919C911197840F951F0296918378
:100D3000808312968D919C911397938382832115C2
:100D4000310529F4F0938301E09382013EC0D9017B
:100D50001396FC93EE9312974D915D91A40FB51FDE
:100D6000EA17FB0779F480819181840F951F029621
:100D7000D90111969C938E938281938113969C93B3
:100D80008E931297E0E0F0E08A819B81009719F042
:100D9000FE01EC01F9CFCE01029628813981820F44
:100DA000931F20918001309181012817390769F440
:100DB000309729F4109283011092820102C01382AD
:100DC0001282D0938101C0938001DF91CF91089569
:100DD000A0E0B0E0EDEEF6E04DCEEC016881798167
:100DE0008A819B81611571058105910521F464E279
:100DF00079ED8BE597E02DE133EF41E050E0FBDD4D
:100E000049015A0127EA31E440E050E010DE69016F
:100E10007A01C501B4012CEE34EF4FEF5FEF07DE2E
:100E200089019A01C00ED11EE21EF31EF7FE06C014
:100E300081E0C81AD108E10880E8F80AC882D9829E
:100E4000EA82FB82C701B6019F77CDB7DEB7ECE03F
:100E50002DCEBEDF089586E690E0BADF0895609358
:100E6000660070936700809368009093690008950E
:100E7000E199FECF9FBB8EBBE09A99278DB3089571
:100E8000262FE199FECF1CBA9FBB8EBB2DBB0FB6A0
:100E9000F894E29AE19A0FBE0196089510E0C0E539
:100EA000D0E003C0FE013BDE2296C235D107D1F768
:040EB000F894FFCFE4
:0A0EB400000084018000010000002E
:00000001FF
