:1000000028C04CC04BC04AC0AFC448C047C046C05F
:1000100045C044C043C042C041C040C03FC0D5C03D
:10002000D9C0DDC0E1C0E5C0FBC011C127C150C1CE
:1000300051C152C153C154C155C156C157C101022A
:100040000408102001010101010100380037F60306
:10005000FB0311241FBECFE5D2E0DEBFCDBF10E011
:10006000A0E6B0E0E4E8F4E102C005900D92AE36FF
:10007000B107D9F721E0AEE6B0E001C01D92A83883
:10008000B207E1F710E0C0E5D0E003C02297FE011F
:100090002ED8CE34D107D1F7CBD5E8C9B1CFCF9286
:1000A000DF92EF92FF921F93CF93DF93D62F142FFF
:1000B000C0906A00D0906B00E0906C00F0906D00F2
:1000C000682F70E080E090E04ED6A7019601FFD641
:1000D0001CD6C62F6D2F70E080E090E044D6A701BB
:1000E0009601F5D612D6D62F612F70E080E090E011
:1000F0003AD6A7019601EBD608D6162FE12CF12CA3
:100100002D2F3C2F412FB7018EE690E08BD38FEF40
:10011000E81AF80A88E0E816F10491F7DF91CF9128
:100120001F91FF90EF90DF90CF900895CF92DF92D4
:10013000EF92FF920F931F93CF93DF93D82F142F3B
:10014000022FC0906A00D0906B00E0906C00F0909D
:100150006D0070E080E090E006D6A7019601B7D66A
:10016000D4D5C62F612F70E080E090E0FCD5A701C8
:100170009601ADD6CAD5162F602F70E080E090E0D2
:10018000F2D5A7019601A3D6C0D5462F6D2F70E0FA
:10019000212F3C2F8EE690E045D3DF91CF911F9128
:1001A0000F91FF90EF90DF90CF900895CF93DF9362
:1001B00000D0CDB7DEB790E0FC013197E830F10513
:1001C00008F073C0E15FFF4F099420E04FEF60E05B
:1001D00081E06AC020E040E06FEF80E065C02FEF73
:1001E00040E060E082E060C020E04FEF6FEF83E02E
:1001F0005BC06FEF70E080E090E0F8D4262F6FEFE7
:1002000070E080E090E02A83F1D4462F6FEF70E039
:1002100080E090E04983EAD42A81498184E044C0A7
:100220006FEF70E080E090E0E1D4262F6FEF70E098
:1002300080E090E02A83DAD4462F6FEF70E080E010
:1002400090E04983D3D42A81498185E02DC06FEFA6
:1002500070E080E090E0CAD4262F6FEF70E080E07D
:1002600090E02A83C3D4462F6FEF70E080E090E0E7
:100270004983BCD42A81498187E016C06FEF70E0C2
:1002800080E090E0B3D4262F6FEF70E080E090E044
:100290002A83ACD4462F6FEF70E080E090E0498372
:1002A000A5D42A81498186E041DF8EE690E00F9057
:1002B0000F90DF91CF91DDC290E0FC013197E830E3
:1002C000F105B0F4E95EFF4F20E040E060E0099402
:1002D00081E00DC080E00BC082E009C083E007C070
:1002E00084E005C085E003C087E001C086E01EDF32
:1002F0008EE690E0BEC2CF93DF9387E0ECD3EC01B3
:1003000087E0E9D38C0F9D1F97FD01969595879502
:10031000DF91CF9108951F93CF93DF9310E0EBDF30
:10032000EC01E9DF8C179D07C9F71F5F1330B8F3A5
:10033000893D21E09207A4F4843C21E092079CF5DA
:10034000863F910544F4813E91054CF58A5B910905
:10035000459718F11EC08C589140459740F119C03F
:100360008F3C22E092074CF48A3B22E092079CF4F7
:10037000885892404597A8F00CC0863623E0920733
:1003800044F08B3723E0920784F0805893404597E0
:1003900080F080E00FC082E00DC088E00BC084E0F8
:1003A00009C086E007C083E005C085E003C087E0A0
:1003B00001C081E0DF91CF911F910895CF93ABDF12
:1003C000C82F7ADFA8DF8C1306C064E170E080E0FC
:1003D00090E041D3F7CF8C2FE9DE8C2FCF91089599
:1003E0000F931F93CF93DF93CBE7D0E080917A00F8
:1003F00090E09E012B57304028173907D4F48E0126
:1004000088818530F8F440E060E080E048DE8EE6E8
:1004100090E02FD26CE271E080E090E01CD3219656
:10042000F8018081C3DE6CE271E080E090E013D3DC
:10043000DDCF6CE271E080E090E0DF91CF911F9121
:100440000F9109C3DF91CF911F910F9108952FEF65
:1004500040E060E080E06ADE2FEF40E060E081E0B5
:1004600065DE2FEF40E060E082E060DE2FEF40E0ED
:1004700060E083E05BDE2AE03AE04AE064E070E0BE
:100480008EE690E0CFD12FEF3FEF4FEF65E070E0C9
:100490008EE690E0C7D120E040E06FEF86E046DED8
:1004A00020E04FEF60E087E041DE8EE690E0E1C1C2
:1004B0000F931F93CF93DF9361E081E02AD361E034
:1004C00081E05ED380E004D360E08EE690E0F4D17A
:1004D000BEDF74DFC82F8823E1F38BEF8C0F8230EF
:1004E00008F057C0C53049F52DEC3CEC4CEC5CE312
:1004F00060916A0070916B0080916C0090916D002A
:100500009BD360936A0070936B0080936C00909310
:100510006D0020E030E0A901F4D3181664F04DEC32
:100520005CEC6CEC7CE340936A0050936B0060934E
:100530006C0070936D008BDF23C0C63009F52DEC85
:100540003CEC4CEC5CE360916A0070916B00809134
:100550006C0090916D0071D360936A0070936B0092
:1005600080936C0090936D0020E030E040E85FE302
:10057000AAD487FDE0CF40E050E060E87FE3D3CF2E
:100580008BEF8C0F823010F0C11103C017DFC82F22
:10059000A9CFC730B9F480E090E052D780937A00B9
:1005A0000BE710E0C1E0D0E0CE014AD7F80181931B
:1005B0008F012196C115F1E0DF07B1F711DF10922D
:1005C0007A001EC0C830E1F440E060E08FEF67DDE4
:1005D0008EE690E04ED160E080E090E039D7C1E057
:1005E000D0E06FEFCE0134D72196C11582E0D80755
:1005F000C1F740E06FEF80E052DD8EE690E039D148
:1006000068EE73E080E090E026D220E04FEF60E0FB
:1006100081E08CDD20E040E06FEF80E087DD2FEFB0
:1006200040E060E082E082DD20E04FEF6FEF83E0AA
:100630007DDD20E04FEF60E084E078DD20E04FEFEB
:1006400060E085E073DD20E04FEF60E086E06EDD86
:1006500020E04FEF60E087E069DD8EE690E009D1B1
:1006600068EE73E080E090E0DF91CF911F910F91F1
:10067000F2C1EF92FF920F931F93CF93DF931F92DC
:10068000CDB7DEB7B8D1CB01AAD210917A0081E004
:10069000810F80937A0064E070E080E090E0A6D261
:1006A000E12FF0E0E558FF4F6F5F608399DE40E097
:1006B00060E080E0F4DC20E04FEF60E081E036DDD8
:1006C00020E040E06FEF80E031DD2FEF40E060E0C0
:1006D00082E02CDD20E04FEF6FEF83E027DD8EE638
:1006E00090E0C7D04BE7E42E40E0F42E10E080917C
:1006F0007A0090E097012B573040281739077CF497
:1007000080E09FEF980F943010F058DEFACFF70199
:1007100091917F01891302C011E0E9CF10E068E5F3
:1007200072E080E090E097D140E060E080E0B7DCEC
:1007300020E01123B9F14FEF60E084E0F7DC20E026
:100740004FEF60E085E0F2DC20E04FEF60E086E014
:10075000EDDC20E04FEF60E087E0E8DC60917A00BC
:1007600080E090E069836CD66981681780F180E051
:1007700090E06ED60BE710E0EE24E394F12CF80144
:1007800061918F01C70169835BD66981681711F098
:10079000C7015ED6FFEFEF1AFF0AE11481E0F80609
:1007A00071F715C040E06FEF84E0C0DC20E040E06E
:1007B0006FEF85E0BBDC20E040E06FEF86E0B6DC69
:1007C00020E040E06FEF87E0B1DC10927A008EE627
:1007D00090E04FD068EE73E080E090E00F90DF9102
:1007E000CF911F910F91FF90EF9035C168E070E0BD
:1007F0008EE690E003C08EE690E05AC0CF93DF9380
:10080000EC01CB017983688363E070E0CBD3A1D4A2
:100810009B838A831D8281E08C8382E08E83DF91BB
:10082000CF910895FC01CB016081718186179707F4
:10083000F0F463E070E0B6D35481A281B381A80FD5
:10084000B91FA50FB11D3C933581A281B381A80FBB
:10085000B91FA30FB11D2C9326810280F381E02DD7
:10086000E80FF91FE20FF11D408380E0089581E059
:100870000895EF92FF920F931F93FC01A185B2851B
:100880008C919385892B8C93E184F2840781108568
:100890008081918163E070E085D3628173812385DB
:1008A000AC01CF012DD01F910F91FF90EF900895D3
:1008B000FC0182819381E5C4DC0170E0FB01E25C14
:1008C000FF4FE4911B96EC931B976C5B7F4FFB01F2
:1008D0008491E82FF0E0E65BFF4F849190E018965A
:1008E0009C938E931797FB016491E62FF0E0E45BF5
:1008F000FF4FE491F0E01A96FC93EE931997089558
:100900000F931F93D8019C91822F80958923292BC7
:100910003FB7F894FB01460F571FE417F50789F01E
:10092000919168E02C9300C097FF8C93990F000081
:1009300000C000C000C008F48C9300C06A9591F715
:10094000ECCF3FBF1F910F91089583B7887F83BF7E
:100950008AB58C7F81608ABD83B7877F83BF83B769
:10096000887F836083BF089578941F920F920FB69B
:100970000F9211242F933F938F939F93AF93BF9325
:1009800080917B0190917C01A0917D01B0917E01CD
:1009900030917A012CE7230F2D3728F02FEF230F0A
:1009A0000196A11DB11D20937A0180937B01909344
:1009B0007C01A0937D01B0937E0180917F01909195
:1009C0008001A0918101B09182010196A11DB11D0C
:1009D00080937F0190938001A0938101B093820165
:1009E000BF91AF919F918F913F912F910F900FBE2B
:1009F0000F901F9018952FB7F89460917B0170911C
:100A00007C0180917D0190917E012FBF08953FB7B9
:100A1000F89480917F0190918001A0918101B09123
:100A200082012FB508B602FE05C02F3F19F00196CE
:100A3000A11DB11D3FBF6627782F892F9A2F620F06
:100A4000711D811D911D42E0660F771F881F991F40
:100A50004A95D1F70895CF92DF92EF92FF92CF930C
:100A6000DF936B017C01D3DFEB01C114D104E104FE
:100A7000F10471F0CCDF6C1B7D0B683E7340A8F372
:100A800081E0C81AD108E108F108C851DC4FEDCF68
:100A9000DF91CF91FF90EF90DF90CF900895789401
:100AA00080B7806880BF80B7806480BF8CB5806469
:100AB0008CBD8FEF8DBD80B7807F876080BF89B789
:100AC000846089BF42DF86B1876086B9379A08950E
:100AD000809383010895863008F086503091830119
:100AE00027B1932F9295990F990F907C2F72922B8B
:100AF00032FB332730F93295307F932B97B997B17A
:100B0000907F982B97B9369A3699FECF84B195B1DC
:100B10000895CF93DF9390E0FC01E25CFF4F2491B6
:100B2000FC01EC5BFF4F8491882339F190E0FC01DC
:100B3000E45BFF4FA491B0E0FC01E65BFF4F8491C2
:100B4000611106C09FB7F8948C912095822313C041
:100B5000623069F4C82FD0E09FB7F8948C91322F9F
:100B6000309583238C938881822B888305C09FB71F
:100B7000F8948C91822B8C939FBFDF91CF91089535
:100B8000A82FB0E0FD01E25CFF4F9491FD01EC5B0A
:100B9000FF4FE491EE2311F1811103C08AB58F73E9
:100BA00004C0813021F48AB58F7C8ABD05C08430B1
:100BB00019F48CB58F7C8CBDF0E0E65BFF4FA491FF
:100BC000B0E02FB7611105C0F8948C9190958923FE
:100BD00003C0F8948C91892B8C932FBF08950097B4
:100BE00021F0BC0180E090E022C40895CF93DF9310
:100BF00000D000D0CDB7DEB79B01AC016115710507
:100C00008105910559F069833A834B835C830BD44A
:100C100029813A814B815C81D6D103C060E070E0CC
:100C2000CB010F900F900F900F90DF91CF9108950F
:100C300036DF3EDC1EDDFECF5058BB27AA270ED084
:100C400008C1F9D030F0FED020F031F49F3F11F40C
:100C50001EF4EEC00EF4E095E7FBE4C0E92F0AD1E4
:100C600080F3BA17620773078407950718F071F4C9
:100C70009EF522C10EF4E0950B2EBA2FA02D0B018C
:100C8000B90190010C01CA01A0011124FF27591BD1
:100C900099F0593F50F4503E68F11A16F040A22FD7
:100CA000232F342F4427585FF3CF46953795279548
:100CB000A795F0405395C9F77EF41F16BA0B620B47
:100CC000730B840BBAF09150A1F0FF0FBB1F661F8E
:100CD000771F881FC2F70EC0BA0F621F731F841FD1
:100CE00048F4879577956795B795F7959E3F08F0F7
:100CF000B3CF9395880F08F09927EE0F97958795B6
:100D000008956CD008F481E00895BCD088F09F5716
:100D100090F0B92F9927B751A0F0D1F0660F771F47
:100D2000881F991F1AF0BA95C9F712C0B13081F027
:100D3000C3D0B1E00895C0C0672F782F8827B85F6F
:100D400039F0B93FCCF3869577956795B395D9F788
:100D50003EF490958095709561957F4F8F4F9F4F92
:100D60000895E89409C097FB3EF49095809570959E
:100D700061957F4F8F4F9F4F9923A9F0F92F96E9E7
:100D8000BB279395F695879577956795B795F1115C
:100D9000F8CFFAF4BB0F11F460FF1BC06F5F7F4FF9
:100DA0008F4F9F4F16C0882311F096E911C077230B
:100DB00021F09EE8872F762F05C0662371F096E814
:100DC000862F70E060E02AF09A95660F771F881FE3
:100DD000DAF7880F9695879597F90895990F000887
:100DE000550FAA0BE0E8FEEF16161706E807F907FD
:100DF000C0F012161306E407F50798F0621B730B98
:100E0000840B950B39F40A2661F0232B242B252B18
:100E100021F408950A2609F4A140A6958FEF811DBB
:100E2000811D089597F99F6780E870E060E008955C
:100E30009FEF80EC089500240A94161617061806F2
:100E40000906089500240A941216130614060506CE
:100E50000895092E0394000C11F4882352F0BB0F5F
:100E600040F4BF2B11F460FF04C06F5F7F4F8F4FC2
:100E70009F4F089557FD9058440F551F59F05F3FFD
:100E800071F04795880F97FB991F61F09F3F79F0AC
:100E900087950895121613061406551FF2CF46952E
:100EA000F1DF08C0161617061806991FF1CF8695B0
:100EB0007105610508940895E894BB276627772794
:100EC000CB0197F908958ADF08F48FEF08950AD0CF
:100ED000C0CFB1DF28F0B6DF18F0952309F0A2CF1C
:100EE000A7CFEBCFC7DFA8F39923D9F35523C9F3D5
:100EF000950F50E0551FAA27EE27FF27BB27002498
:100F00000894679520F4E20FF31FB41F0A1E220F06
:100F1000331F441FAA1F6695A9F7779530F4F30F86
:100F2000B41F0A1E121E08F46395330F441FAA1F34
:100F3000221F769599F7879520F4B40F0A1E121E8A
:100F4000631F440FAA1F221F331F8695A9F7862F00
:100F5000712D602D11249F5750408AF0E1F08823B5
:100F60004AF0EE0FFF1FBB1F661F771F881F9150AF
:100F70005040A9F79E3F510570F054CF9ECF5F3F80
:100F8000ECF3983EDCF3869577956795B795F795E2
:100F9000E7959F5FC1F7FE2B880F911D969587956A
:100FA00097F908950024552704C0080E591F880F8B
:100FB000991F009729F076956795B8F37105B9F7F1
:100FC000802D952F0895052E97FB16F400940FD0D1
:100FD00057FD05D068D007FC02D046F408C05095F4
:100FE0004095309521953F4F4F4F5F4F0895909515
:100FF0008095709561957F4F8F4F9F4F08956894AE
:101000000013E894A0E0B0E0E7E0F8E01DC0EFEFE7
:10101000E7F959016A015E23550FEE08FE2C87019E
:101020009B01AC019E23990F660B762FCB0163D0F9
:10103000CDB7DEB7EAE024C02F923F924F925F9285
:101040006F927F928F929F92AF92BF92CF92DF92D8
:10105000EF92FF920F931F93CF93DF93CDB7DEB73D
:10106000CA1BDB0B0FB6F894DEBF0FBECDBF0994D1
:101070002A88398848885F846E847D848C849B8428
:10108000AA84B984C884DF80EE80FD800C811B8136
:10109000AA81B981CE0FD11D0FB6F894DEBF0FBE65
:1010A000CDBFED010895A1E21A2EAA1BBB1BFD01C5
:1010B0000DC0AA1FBB1FEE1FFF1FA217B307E40737
:1010C000F50720F0A21BB30BE40BF50B661F771F8F
:1010D000881F991F1A9469F760957095809590956F
:1010E0009B01AC01BD01CF010895EE0FFF1F0590DC
:1010F000F491E02D0994DF93CF939F92A0E49A2E70
:101100000024D001E001F00116950795F794E794CB
:10111000D794C794B794A79448F41068A20FB31F4C
:10112000C41FD51FE61FF71F081E191E220F331FED
:10113000441F551F661F771F881F991F9A9421F718
:101140009D01AE01BF01C00111249F90CF91DF919D
:101150000895CF93DF938230910510F482E090E000
:10116000E0918601F091870120E030E0A0E0B0E05E
:10117000309739F14081518148175907B8F0481725
:10118000590771F482819381109729F013969C93EB
:101190008E9312972CC0909387018093860127C06D
:1011A0002115310531F04217530718F0A901DB0171
:1011B00001C0EF019A01BD01DF010280F381E02D42
:1011C000D7CF21153105F9F0281B390B2430310513
:1011D00080F48A819B816115710521F0FB01938365
:1011E000828304C09093870180938601FE0132962A
:1011F00044C0FE01E20FF31F819391932250310905
:10120000398328833AC02091840130918501232BB2
:1012100041F4209162003091630030938501209366
:10122000840120916000309161002115310541F465
:101230002DB73EB74091640050916500241B350BDB
:10124000E0918401F0918501E217F307A0F42E1BD1
:101250003F0B2817390778F0AC014E5F5F4F24171A
:10126000350748F04E0F5F1F50938501409384016E
:101270008193919302C0E0E0F0E0CF01DF91CF9144
:101280000895CF93DF93009709F487C0FC0132974C
:1012900013821282C0918601D0918701209781F438
:1012A00020813181280F391F80918401909185011F
:1012B0008217930779F5F0938501E09384016DC05F
:1012C000DE0120E030E0AE17BF0750F412964D91DA
:1012D0005C9113979D014115510509F1DA01F3CF96
:1012E000B383A28340815181840F951F8A179B0786
:1012F00071F48D919C911197840F951F02969183A3
:10130000808312968D919C911397938382832115EC
:10131000310529F4F0938701E09386013EC0D9019D
:101320001396FC93EE9312974D915D91A40FB51F08
:10133000EA17FB0779F480819181840F951F02964B
:10134000D90111969C938E938281938113969C93DD
:101350008E931297E0E0F0E08A819B81009719F06C
:10136000FE01EC01F9CFCE01029628813981820F6E
:10137000931F20918401309185012817390769F462
:10138000309729F4109287011092860102C01382CF
:101390001282D0938501C0938401DF91CF9108958B
:1013A000A0E0B0E0E5EDF9E04DCEEC016881798197
:1013B0008A819B81611571058105910521F464E2A3
:1013C00079ED8BE597E02DE133EF41E050E0FBDD77
:1013D00049015A0127EA31E440E050E010DE69019A
:1013E0007A01C501B4012CEE34EF4FEF5FEF07DE59
:1013F00089019A01C00ED11EE21EF31EF7FE06C03F
:1014000081E0C81AD108E10880E8F80AC882D982C8
:10141000EA82FB82C701B6019F77CDB7DEB7ECE069
:101420002DCEBEDF089586E690E0BADF0895609382
:101430006600709367008093680090936900089538
:10144000E199FECF9FBB8EBBE09A99278DB308959B
:10145000262FE199FECF1CBA9FBB8EBB2DBB0FB6CA
:10146000F894E29AE19A0FBE0196089510E0C0E563
:10147000D0E003C0FE013BDE2296C235D107D1F792
:04148000F894FFCF0E
:0E148400000088018000010000000000003F11
:00000001FF
