:1000000018C03CC03BC03AC00DC338C037C036C072
:1000100035C034C033C032C031C030C02FC001023F
:1000200004081020010101010101003800375402C9
:10003000590211241FBECFE5D2E0DEBFCDBF21E0C3
:10004000AAE6B0E001C01D92A838B207E1F710E0BF
:10005000A0E6B0E0E6EFFDE002C005900D92AA3602
:10006000B107D9F710E0C0E3D0E003C02297FE014A
:100070000DD5CE32D107D1F739D4B1C6C1CFCF9388
:10008000DF93809378016093770140937901C0E01A
:10009000D0E0209177013091780140917901BE0143
:1000A0008BE691E01DD22196C830D10591F7DF9102
:1000B000CF9108956093780140937701209379015F
:1000C000209177013091780140917901682F70E09B
:1000D0008BE691E005C261E081E079D361E081E0E7
:1000E000ADD380E053D360E08BE691E043D22FEFB5
:1000F00040E060E080E0DEDF20E040E06FEF81E0A4
:10010000D9DF20E04FEF6FEF82E0D4DF20E04FEF48
:1001100060E083E0CFDF20E04FEF60E084E0CADF03
:1001200020E04FEF60E085E0C5DF20E04FEF60E0CA
:1001300086E0C0DF20E04FEF60E087E0BBDF8BE6CA
:1001400091E0F5D168EE73E080E090E0E2C21F93A9
:10015000CF93DF9387E01DD315E0C0E0D0E087E0C8
:1001600018D3C80FD91F1150D1F7CE0165E070E048
:10017000D2D3CB01DF91CF911F9108951F93CF93DD
:10018000DF9310E0E4DFEC01E2DF8C179D07C9F795
:100190001F5F1430B8F3893D21E09207A4F4843C3A
:1001A00021E092079CF5863F910544F4813E91053C
:1001B0004CF58A5B9109459718F11EC08C58914007
:1001C000459740F119C08F3C22E092074CF48A3BDE
:1001D00022E092079CF4885892404597A8F00CC002
:1001E000863623E0920744F08B3723E0920784F0B1
:1001F00080589340459780F080E00FC082E00DC0AA
:1002000088E00BC084E009C086E007C083E005C039
:1002100085E003C087E001C081E0DF91CF911F91AD
:10022000089547D2CB0139D3A9DF8130D1F420E042
:1002300040E060E03FDF8BE691E079D19FDF8130E5
:1002400031F464E170E080E090E063D2F7CF20E029
:1002500040E06FEF81E02EDF8BE691E068D180E037
:1002600008958CDF8230D9F420E040E060E080E047
:1002700021DF8BE691E05BD181DF823031F464E1F4
:1002800070E080E090E045D2F7CF2FEF40E060E0F3
:1002900080E010DF8BE691E04AD181E008956EDFC7
:1002A0008330D9F420E040E060E082E003DF8BE6B9
:1002B00091E03DD163DF833031F464E170E080E0B0
:1002C00090E027D2F7CF20E04FEF6FEF82E0F2DE31
:1002D0008BE691E02CD182E0089550DF843009F064
:1002E000A3CF20E040E060E083E0E4DE8BE691E035
:1002F0001ED144DF843031F464E170E080E090E0AE
:1003000008D2F7CF20E04FEF60E083E0D3DE8BE64A
:1003100091E00DD183E008950F931F93CF93DF9366
:10032000C0916A00D0916B00CE01019690936B0052
:1003300080936A0064E070E080E090E0B5D2C45938
:10034000DF4F6883CCE6D0E080916A0090916B002B
:100350009E012C56304040E060E028173907A4F594
:1003600080E08DDE8BE691E0E2D068E572E080E02F
:1003700090E0CFD18E018881811105C020E040E05E
:100380006FEF81E097DE8881813029F42FEF40E024
:1003900060E080E08FDE8881823021F420E04FEF42
:1003A0006FEF88DE2196F8018081833021F420E010
:1003B0004FEF60E07FDE8BE691E0B9D068E572E058
:1003C00080E090E0A6D1C0CF80E059DE20E040E0A0
:1003D0006FEF81E06FDE2FEF40E060E080E06ADEEB
:1003E00020E04FEF6FEF82E065DE20E04FEF60E04E
:1003F00083E060DE8BE691E09AD0CCE6D0E010E0BE
:1004000080916A0090916B009E012C563040281715
:1004100039073CF406DF9991891302C011E0F0CF4F
:1004200010E068E572E080E090E073D140E060E0C9
:1004300080E025DE20E01123A1F04FEF60E084E0B2
:1004400039DE20E04FEF60E085E034DE20E04FEF62
:1004500060E086E02FDE20E04FEF60E087E02ADEFC
:1004600017C040E06FEF84E025DE20E040E06FEF52
:1004700085E020DE20E040E06FEF86E01BDE20E03C
:1004800040E06FEF87E016DE10926B0010926A007A
:100490008BE691E04CD068EE73E080E090E0DF9175
:1004A000CF911F910F9135C168E070E08BE691E02C
:1004B00003C08BE691E05AC0CF93DF93EC01CB01F0
:1004C0007983688363E070E015D212D39B838A83BB
:1004D0001D8281E08C8382E08E83DF91CF9108952D
:1004E000FC01CB016081718186179707F0F463E00E
:1004F00070E000D25481A281B381A80FB91FA50F6B
:10050000B11D3C933581A281B381A80FB91FA30F00
:10051000B11D2C9326810280F381E02DE80FF91F95
:10052000E20FF11D408380E0089581E00895EF928D
:10053000FF920F931F93FC01A185B2858C91938547
:10054000892B8C93E184F2840781108580819181CD
:1005500063E070E0CFD1628173812385AC01CF016C
:100560002DD01F910F91FF90EF900895FC01828193
:10057000938156C3DC0170E0FB01E25EFF4FE49122
:100580001B96EC931B976C5D7F4FFB018491E82FCA
:10059000F0E0E65DFF4F849190E018969C938E9377
:1005A0001797FB016491E62FF0E0E45DFF4FE491C3
:1005B000F0E01A96FC93EE93199708950F931F930A
:1005C000D8019C91822F80958923292B3FB7F894DD
:1005D000FB01460F571FE417F50789F0919168E07A
:1005E0002C9300C097FF8C93990F000000C000C0AF
:1005F00000C008F48C9300C06A9591F7ECCF3FBF20
:100600001F910F91089583B7887F83BF8AB58C7F30
:1006100081608ABD83B7877F83BF83B7887F83600C
:1006200083BF089578941F920F920FB60F921124F2
:100630002F933F938F939F93AF93BF9380917B01B1
:1006400090917C01A0917D01B0917E0130917A0161
:100650002CE7230F2D3728F02FEF230F0196A11D34
:10066000B11D20937A0180937B0190937C01A0932C
:100670007D01B0937E0180917F0190918001A091D6
:100680008101B09182010196A11DB11D80937F016E
:1006900090938001A0938101B0938201BF91AF91AB
:1006A0009F918F913F912F910F900FBE0F901F90B0
:1006B00018952FB7F89460917B0170917C0180911F
:1006C0007D0190917E012FBF08953FB7F8948091EE
:1006D0007F0190918001A0918101B09182012FB59D
:1006E00008B602FE05C02F3F19F00196A11DB11DED
:1006F0003FBF6627782F892F9A2F620F711D811DAA
:10070000911D42E0660F771F881F991F4A95D1F708
:100710000895CF92DF92EF92FF92CF93DF936B0118
:100720007C01D3DFEB01C114D104E104F10471F0C9
:10073000CCDF6C1B7D0B683E7340A8F381E0C81AC8
:10074000D108E108F108C851DC4FEDCFDF91CF911E
:10075000FF90EF90DF90CF900895789480B78068F5
:1007600080BF80B7806480BF8CB580648CBD8FEF04
:100770008DBD80B7807F876080BF89B7846089BF67
:1007800042DF86B1876086B9379A089580938301E6
:100790000895863008F086503091830127B1932F59
:1007A0009295990F990F907C2F72922B32FB3327E1
:1007B00030F93295307F932B97B997B1907F982B72
:1007C00097B9369A3699FECF84B195B10895CF93F3
:1007D000DF9390E0FC01E25EFF4F2491FC01EC5DB1
:1007E000FF4F8491882339F190E0FC01E45DFF4FD5
:1007F000A491B0E0FC01E65DFF4F8491611106C059
:100800009FB7F8948C912095822313C0623069F4CD
:10081000C82FD0E09FB7F8948C91322F3095832366
:100820008C938881822B888305C09FB7F8948C9124
:10083000822B8C939FBFDF91CF910895A82FB0E0BA
:10084000FD01E25EFF4F9491FD01EC5DFF4FE491ED
:10085000EE2311F1811103C08AB58F7304C081307A
:1008600021F48AB58F7C8ABD05C0843019F48CB51B
:100870008F7C8CBDF0E0E65DFF4FA491B0E02FB718
:10088000611105C0F8948C919095892303C0F89468
:100890008C91892B8C932FBF0895009721F0BC0178
:1008A00080E090E093C20895CF93DF9300D000D012
:1008B000CDB7DEB79B01AC016115710581059105CE
:1008C00059F069833A834B835C837CD229813A81D6
:1008D0004B815C8133D003C060E070E0CB010F90AE
:1008E0000F900F900F90DF91CF91089536DFF3DBDB
:1008F00013DDFECF0024552704C0080E591F880FB2
:10090000991F009729F076956795B8F37105B9F7A7
:10091000802D952F089597FB072E16F4009406D08E
:1009200077FD08D07BD007FC05D03EF490958195EB
:100930009F4F0895709561957F4F0895052E97FB01
:1009400016F400940FD057FD05D07CD007FC02D0E0
:1009500046F408C050954095309521953F4F4F4F34
:100960005F4F089590958095709561957F4F8F4F5B
:100970009F4F089568940013E894A0E0B0E0E2EC83
:10098000F4E01DC0EFEFE7F959016A015E23550F4E
:10099000EE08FE2C87019B01AC019E23990F660B8C
:1009A000762FCB0177D0CDB7DEB7EAE024C02F9207
:1009B0003F924F925F926F927F928F929F92AF92EF
:1009C000BF92CF92DF92EF92FF920F931F93CF933C
:1009D000DF93CDB7DEB7CA1BDB0B0FB6F894DEBFD3
:1009E0000FBECDBF09942A88398848885F846E84F9
:1009F0007D848C849B84AA84B984C884DF80EE8043
:100A0000FD800C811B81AA81B981CE0FD11D0FB64B
:100A1000F894DEBF0FBECDBFED010895AA1BBB1B2E
:100A200051E107C0AA1FBB1FA617B70710F0A61BEE
:100A3000B70B881F991F5A95A9F780959095BC010F
:100A4000CD010895A1E21A2EAA1BBB1BFD010DC00A
:100A5000AA1FBB1FEE1FFF1FA217B307E407F5076E
:100A600020F0A21BB30BE40BF50B661F771F881F4A
:100A7000991F1A9469F760957095809590959B01E0
:100A8000AC01BD01CF010895EE0FFF1F0590F49159
:100A9000E02D0994DF93CF939F92A0E49A2E002437
:100AA000D001E001F00116950795F794E794D794EB
:100AB000C794B794A79448F41068A20FB31FC41F3B
:100AC000D51FE61FF71F081E191E220F331F441FD4
:100AD000551F661F771F881F991F9A9421F79D0144
:100AE000AE01BF01C00111249F90CF91DF91089505
:100AF000CF93DF938230910510F482E090E0E09193
:100B00008601F091870120E030E0A0E0B0E030976E
:100B100039F14081518148175907B8F048175907F2
:100B200071F482819381109729F013969C938E9390
:100B300012972CC0909387018093860127C02115BE
:100B4000310531F04217530718F0A901DB0101C04C
:100B5000EF019A01BD01DF010280F381E02DD7CFC3
:100B600021153105F9F0281B390B2430310580F4AB
:100B70008A819B816115710521F0FB01938382833A
:100B800004C09093870180938601FE01329644C091
:100B9000FE01E20FF31F81939193225031093983B3
:100BA00028833AC02091840130918501232B41F4A0
:100BB000209162003091630030938501209384017D
:100BC00020916000309161002115310541F42DB76D
:100BD0003EB74091640050916500241B350BE091B5
:100BE0008401F0918501E217F307A0F42E1B3F0B5F
:100BF0002817390778F0AC014E5F5F4F241735078F
:100C000048F04E0F5F1F50938501409384018193FC
:100C1000919302C0E0E0F0E0CF01DF91CF91089521
:100C2000CF93DF93009709F487C0FC0132971382BA
:100C30001282C0918601D0918701209781F4208192
:100C40003181280F391F809184019091850182178D
:100C5000930779F5F0938501E09384016DC0DE017F
:100C600020E030E0AE17BF0750F412964D915C9132
:100C700013979D014115510509F1DA01F3CFB383B3
:100C8000A28340815181840F951F8A179B0771F4BD
:100C90008D919C911197840F951F0296918380836B
:100CA00012968D919C911397938382832115310520
:100CB00029F4F0938701E09386013EC0D901139691
:100CC000FC93EE9312974D915D91A40FB51FEA1717
:100CD000FB0779F480819181840F951F0296D901D9
:100CE00011969C938E938281938113969C938E93FD
:100CF0001297E0E0F0E08A819B81009719F0FE01F5
:100D0000EC01F9CFCE01029628813981820F931F21
:100D100020918401309185012817390769F43097B3
:100D200029F4109287011092860102C01382128268
:100D3000D0938501C0938401DF91CF910895A0E005
:100D4000B0E0E4EAF6E039CEEC01688179818A818D
:100D50009B81611571058105910521F464E279EDAE
:100D60008BE597E02DE133EF41E050E0E7DD49010D
:100D70005A0127EA31E440E050E0FCDD69017A01E4
:100D8000C501B4012CEE34EF4FEF5FEFF3DD8901C5
:100D90009A01C00ED11EE21EF31EF7FE06C081E0CE
:100DA000C81AD108E10880E8F80AC882D982EA8224
:100DB000FB82C701B6019F77CDB7DEB7ECE019CE55
:100DC000BEDF089586E690E0BADF0895609366007E
:100DD000709367008093680090936900089510E015
:100DE000C0E3D0E003C0FE0151DE2296C233D1073A
:060DF000D1F7F894FFCFDB
:0A0DF60000008801800001000000E9
:00000001FF
