:100000000C94D4000C94FC000C94FC000C94FC00A8
:100010000C94FC000C94FC000C94FC000C94FC0070
:100020000C94FC000C94FC000C94AD040C942B0577
:100030000C94FC000C94FC000C94FC000C94FC0050
:100040000C94FC000C94FC000C94FC000C94FC0040
:100050000C94FC000C94FC000C94FC000C945D07C8
:100060000C94FC000C94FC000C94FC000C94FC0020
:100070000C94FC000C94FC000C94FC000C94FC0010
:100080000C94FC000C94FC000C94FC000C94FC0000
:100090000C94FC000C94FC000C94FC000C94FC00F0
:1000A0000C94FC000C94FC000C94FC00000000007C
:1000B000250028002B002E00310000000000240045
:1000C00027002A002D003000080B00020202000069
:1000D00009040000010202000005240010010524AB
:1000E000010101042402060524060001070581031D
:1000F00010004009040100020A0000000705020286
:1001000040000007058302400000040309041201B7
:100110000002EF0201404F1B0692000101020301A1
:10012000537061726B46756E00537061726B4675E9
:100130006E2050726F204D6963726F0000000000E6
:100140002300260029002C002F00040404040403CB
:100150000405020202020403020202020606060667
:10016000060604040202020404040802011040808E
:10017000401020408040800802040180402010028E
:1001800001108010204040200000000200090F00F4
:1001900000030401000C000000000000000000004B
:1001A000000000000000A70711241FBECFEFDAE017
:1001B000DEBFCDBF11E0A0E0B1E0E4E1F4E102C0B8
:1001C00005900D92A634B107D9F721E0A6E4B1E07D
:1001D00001C01D92A33CB207E1F710E0C4EDD0E0EE
:1001E00004C02197FE010E94020AC33DD107C9F74E
:1001F0000E9423080C94080A0C940000FC018091D2
:100200006601882311F13FB7F89482E08093E900FA
:100210002091F200822F90E01816190614F481E064
:1002200090E0882339F0289844E640936501409196
:10023000F1004083222339F02091F200211103C004
:100240002BE62093E8003FBF08958FEF9FEF0895BE
:10025000CF93DF931F92CDB7DEB76983DC01ED91B9
:10026000FC910280F381E02D41E050E0BE016F5F20
:100270007F4F09950F90DF91CF910895CF93DF9332
:100280001F92CDB7DEB7FC018485958597FD08C028
:100290002FEF3FEF358724870F90DF91CF9108959F
:1002A000CE0101960E94FE00019719F4898190E029
:1002B000F3CF8FEF9FEFF0CF0F931F93CF93DF9389
:1002C0001F92CDB7DEB78C01FC018485958597FF21
:1002D0000BC0CE0101960E94FE00019771F4898146
:1002E00090E0F80195878487F801848595850F90C3
:1002F000DF91CF911F910F9108958FEF9FEFF1CF75
:10030000FC018485958597FD0BC09FB7F89482E02A
:100310008093E9008091F2009FBF90E001960895DC
:100320009FB7F89482E08093E9008091F2009FBF2C
:1003300090E008958093E9008091F200882319F0FD
:100340008AE38093E800089583E00C949A01409139
:100350005D0150915E0120915B0130915C0142177B
:100360005307B4F49091E8009570E1F39091E800A0
:1003700092FD19C08093F10080915D0190915E0122
:1003800001968F739927892B19F48EEF8093E800DB
:1003900080915D0190915E01019690935E01809342
:1003A0005D0181E0089580E00895EF92FF920F9340
:1003B0001F93CF93DF93F82E192FE62E042F81E0A1
:1003C000860F880F0E94A70183E00E94A701CF2D0E
:1003D000D12FEC0EFD2EF11CCE15DF05B9F007FF75
:1003E00013C0FE0184910E94A701182F80E00E9493
:1003F000A701812321968111EFCFDF91CF911F912A
:100400000F91FF90EF9008958881EDCF81E0F5CFB7
:10041000DF92EF92FF920F931F93CF93DF93D82E2B
:100420008A01EB017B01E40EF51ECE15DF0559F0C4
:10043000D7FE12C0FE0184910E94A701219681116E
:10044000F4CF0FEF1FEFC801DF91CF911F910F91F4
:10045000FF90EF90DF9008958881EECF2FB7F8944A
:1004600087708093E9009091E800892F807295FF52
:1004700004C09091F20080E4891B2FBF089583E0AF
:100480000E942E0290E00895615030F02091F1001A
:10049000FC0120830196F8CF289884E680936501BB
:1004A00008958091530181110DC082E080934F0126
:1004B00084E080935001109252011092510181E02A
:1004C000809353018FE491E008950F931F93CF938E
:1004D000DF931F92CDB7DEB782E0898342E450E01C
:1004E00068EC70E080E80E9408020E945102DC0182
:1004F00012960D911C910115110589F0D801ED910D
:10050000FC910280F381E02DBE016F5F7F4FC80137
:10051000099597FD04C0F80100851185ECCF89810C
:100520000F90DF91CF911F910F910895CF93DF939B
:1005300090E0FC01E759FE4F2491865B9E4FFC0141
:1005400084918823D1F090E0880F991FFC01E65434
:10055000FF4FA591B491FC01E455FF4FC591D49193
:10056000623071F49FB7F8943C91822F8095832379
:100570008C93E8812E2B28839FBFDF91CF91089524
:100580008FB7F894EC912E2B2C938FBFF6CF3FB7FB
:10059000F89480914B0190914C01A0914D01B09144
:1005A0004E0126B5A89B05C02F3F19F00196A11D4D
:1005B000B11D3FBFBA2FA92F982F8827BC01CD01AD
:1005C000620F711D811D911D42E0660F771F881F0C
:1005D000991F4A95D1F708958F929F92AF92BF923B
:1005E000CF92DF92EF92FF924B015C010E94C70213
:1005F0006B017C010E94C7026C197D098E099F095D
:10060000683E734081059105A8F321E0821A9108A4
:10061000A108B10888EEC80E83E0D81EE11CF11CC9
:1006200081149104A104B10429F7FF90EF90DF90A9
:10063000CF90BF90AF909F908F9008957F928F92B0
:100640009F92AF92BF92CF92DF92EF92FF920F9361
:100650001F93CF93DF93C82E8B017A01809166019F
:10066000811110C08FEF9FEFDF91CF911F910F91FC
:10067000FF90EF90DF90CF90BF90AF909F908F90C2
:100680007F9008958091610180FF05C08091E00016
:1006900082608093E000CE2DDF2DD12C8AEFB82E22
:1006A0008C2D8770982E8C2D8072882E8C2D8074C6
:1006B000782E9AE3A92E209719F4DD2009F452C070
:1006C0008C2D0E942E0281110AC0BA94BB2051F2D7
:1006D00061E070E080E090E00E94EC02ECCF8C17CB
:1006E0001D0611F00CF08C2F9FB7F8949092E90042
:1006F0002091E80025FD02C09FBFDDCF282F30E00C
:10070000C21BD30B882029F08150A0F01092F10079
:10071000FBCFF801C7FC0AC0815050F041914093D3
:10072000F100FACF44914093F10031968150D0F717
:10073000020F131FDD2021F0A092E800D12CDCCFA6
:100740008091E80085FD07C0A092E800DD24D394E5
:10075000209791F2F3CF209779F6772069F2A09253
:10076000E800CACF5D9884E680936001C7017CCF22
:10077000CF93DF93EC0180910B01882331F083E06C
:100780000E941E031816190634F081E090E09B8346
:100790008A8380E090E0DF91CF91089590E080E03F
:1007A000089580E008950F931F93CF93DF93CDB703
:1007B000DEB7C456D1090FB6F894DEBF0FBECDBF69
:1007C000FC01DB019C919E5F9C939E01295F3F4F42
:1007D0008AE5D9011D928A95E9F788E089838BE043
:1007E0008A8322E02C8391E09D839E8339E03987C0
:1007F00064E06A879E879F873A8B44E24B8B9C8B91
:10080000A0E0B1E0BE8BAD8B09E010E0188F0F8B3C
:10081000998F3B8F6C8F2F8F98A353E059A387E05C
:100820008CA34DA39EA3B8A7AFA3A1E4B0E0BAA741
:10083000A9A786E08BA74CA72DA79EA79FA789AB4A
:100840004AAB2BAB2CAB2DAB3FAB48AF59AF9AAFFC
:100850005BAF9CAF2DAF9EAF21963FAF2197229605
:100860004FAF229723965FAF239724962FAF2497FD
:1008700025966FAF259726969FAF269727969FAF11
:10088000279728969FAF28972A963FAF2A9745E04B
:100890002B964FAF2B972D962FAF2D9760E470E0DE
:1008A0002F967FAF6EAF2F9763964FAF639785E21A
:1008B00064968FAF649765969FAF659766969FAF76
:1008C000669767969FAF679768963FAF68976996F8
:1008D0004FAF69976B962FAF6B976D967FAF6EAFEB
:1008E0006D97A1964FAFA197A2968FAFA297A396AF
:1008F0009FAFA397A4969FAFA497A5965FAFA59728
:1009000092819B839B879F5F9A8F9D8F83812C967B
:100910008FAF2C978F5F80686A968FAF6A9744E697
:1009200050E0BE016F5F7F4F80E00E940802CC590B
:10093000DF4F0FB6F894DEBF0FBECDBFDF91CF9172
:100940001F910F91089584E0E1E4F1E0DB01019053
:100950000D928A95E1F784E008951F920F920FB6E9
:100960000F9211242F933F934F935F936F937F9335
:100970008F939F93AF93BF93CF93EF93FF93C091C8
:10098000E1008091E100837F8093E100C3FF0FC00D
:100990001092E90081E08093EB001092EC0082E37A
:1009A0008093ED001092660188E08093F000C2FF12
:1009B0001BC083E00E949A0180916001882341F06E
:1009C00080916001815080936001811101C05D9A26
:1009D00080916501882341F0809165018150809369
:1009E0006501811101C0289AC4FF23C08091E200F3
:1009F0008E7E81608093E2008091E1008F7E809303
:100A0000E100809161018E7E806180936101FF91A0
:100A1000EF91CF91BF91AF919F918F917F916F9106
:100A20005F914F913F912F910F900FBE0F901F90AC
:100A30001895C0FFECCF8091E2008E7E806180939C
:100A4000E2008091E1008E7E8093E100809161015F
:100A50008E7E8160DACF1F920F920FB60F92112413
:100A6000CF92DF92EF92FF920F931F932F933F93BA
:100A70004F935F936F937F938F939F93AF93BF93A6
:100A8000EF93FF93CF93DF93CDB7DEB76C97DEBFC5
:100A9000CDBF1092E9008091E80083FF25C068E097
:100AA000CE0145960E94440282EF8093E8008D8932
:100AB00087FF39C09091E80090FFFCCF982F907687
:100AC00009F034C19E894F89588D2F89F88C911176
:100AD00031C0803861F5809162018093F1001092FD
:100AE000F1008EEF8093E8006C960FB6F894DEBFAD
:100AF0000FBECDBFDF91CF91FF91EF91BF91AF912D
:100B00009F918F917F916F915F914F913F912F9125
:100B10001F910F91FF90EF90DF90CF900F900FBE3D
:100B20000F901F9018959EEF9093E800C7CF1092FA
:100B3000F100D5CF913059F48111D3CF4130510517
:100B400081F6809162018D7F80936201CACF9330DC
:100B500049F48111C6CF4130510519F680916201E7
:100B60008260F2CF953041F48091E80080FFFCCFA5
:100B700020682093E300B5CF963009F0A9C00B8D13
:100B80001C8D22E01092E90010925E0110925D012E
:100B9000F2122EC010925C0110925B010E9465025D
:100BA0001F8299E09983FA8291E09E8390EA988768
:100BB0009AEF998720915D0130915E01275F3F4F49
:100BC0003C832B838D831092E90010925E0110927A
:100BD0005D0110935C0100935B0149E050E0BE01B0
:100BE0006F5F7F4F80E00E9408020E94650279CF0C
:100BF00010935C0100935B010E945102DC0112968C
:100C00000D911C910115110509F451C1D801ED9107
:100C1000FC910480F581E02DBE016B5E7F4FC80121
:100C20000995009709F03EC1F80100851185EACFCA
:100C3000F3E0FF120EC08F89882309F440C0823090
:100C400061F440E862E189E291E00E94D5018111FE
:100C500048CF81E28093EB0047CF813029F440E810
:100C600068E080E291E0F1CF833099F70E94510271
:100C7000DC011296ED90FC908E010F5F1F4F680112
:100C8000E114F10479F0D701ED91FC910680F78130
:100C9000E02DB801C7010995080F111DF701E08487
:100CA000F184EECFD8011C92F60101900020E9F703
:100CB0003197BF016C197D0940E0C601C6CF6AE0DB
:100CC00071E0FB01449150E080E80E94080209CFE6
:100CD000973009F4BECF983021F481E08093F10081
:100CE00000CF993009F0FDCE837009F0B2CFEDE06E
:100CF000F1E081E031E096E32191222371F08093CD
:100D0000E9003093EB00DF0111972C912093EC0068
:100D10009093ED008F5F873079F78EE78093EA003C
:100D20001092EA008F8980936601DBCE8B8D9C8DBB
:100D30001092E90010925E0110925D0190935C01A7
:100D400080935B01898D811192C08E899D89913A32
:100D500049F4813209F07DCF47E050E064E071E072
:100D600080E0B3CF913209F074CF833269F48F8978
:100D7000988DB0E0A0E08093000190930101A093D2
:100D80000201B0930301ADCE803269F48091E80096
:100D900082FFFCCF67E084E091E00E9444028BEF89
:100DA0008093E8009ECE823209F09BCE8F8980939B
:100DB0000B01EEEFFFE7859194918B3F9C4D51F134
:100DC000E0E0F8E08091040190910501A091060116
:100DD000B0910701803B9440A105B105F1F48091E9
:100DE0000B0180FD1AC0EE3F8AE0F80789F587E71E
:100DF00097E7918380838091600080935F0188E111
:100E00009BE00FB6F894A895809360000FBE909376
:100E1000600067CEEEEFFAE0D5CF80819181873711
:100E2000974709F05ECEA895809160008861809315
:100E3000600080915F0180936000EE3F2AE0F2073E
:100E400089F08091FE0A9091FF0A9183808349CEB8
:100E5000808191818737980751F29093FF0A8093A0
:100E6000FE0AC5CF1092FF0A1092FE0A3ACE0E94E7
:100E70005102DC0112960D911C910115110509F426
:100E8000E8CED801ED91FC910190F081E02DBE01FA
:100E90006B5E7F4FC8010995811123CEF801008553
:100EA0001185EBCF181619060CF41BCED2CEF1E04B
:100EB000FF12BECE6EE071E004CF1F920F920FB60C
:100EC0000F9211242F933F938F939F93AF93BF93D0
:100ED0008091470190914801A0914901B0914A0148
:100EE0003091460123E0230F2D3758F50196A11DBF
:100EF000B11D209346018093470190934801A09330
:100F00004901B0934A0180914B0190914C01A0910D
:100F10004D01B0914E010196A11DB11D80934B0171
:100F200090934C01A0934D01B0934E01BF91AF91AE
:100F30009F918F913F912F910F900FBE0F901F9017
:100F4000189526E8230F0296A11DB11DD2CFCF938D
:100F5000DF9310926A011092690188EE93E0A0E09D
:100F6000B0E080936B0190936C01A0936D01B093FE
:100F70006E0187E291E090936801809367018FEFA3
:100F80009FEF909374018093730182E08093BB0183
:100F90008093BC0181EC91E09093BE018093BD01F0
:100FA0001092C0011092BF0189E391E09093B801C3
:100FB0008093B70180E88093C10181E88093C201EA
:100FC0000E945102FC0181819091BB01482F490F81
:100FD0005527551F483051059CF5A281B3811097C4
:100FE00009F527EB31E03383228320812093B90177
:100FF0008093BA018091BC01820F80832091BD0152
:10100000A22FB091BE018A2F821B8917C8F481815B
:101010003D91C82FD0E0C45FDE4F38838F5F81835E
:10102000F2CFD90118962D913C91199721153105D0
:10103000C1F727EB31E019963C932E931897D5CF43
:10104000DF91CF910895CF93DF9300D000D0CDB73B
:10105000DEB7789484B5826084BD84B5816084BD38
:1010600085B5826085BD85B5816085BD80916E0046
:10107000816080936E001092810080918100826077
:1010800080938100809181008160809381008091B4
:1010900080008160809380008091910082608093C5
:1010A00091008091910081608093910080919000E7
:1010B0008160809390008091C10084608093C10022
:1010C0008091C10082608093C1008091C1008160E5
:1010D0008093C1008091C30081608093C3008091A0
:1010E000C00082608093C0008091C20081608093C4
:1010F000C20080917A00846080937A0080917A00A7
:10110000826080937A0080917A00816080937A0077
:1011100080917A00806880937A0010926601109224
:101120006201109261018091D70081608093D700A5
:1011300080EA8093D80089B5806189BD89B58260D5
:1011400089BD09B400FEFDCF61E070E080E090E071
:101150000E94EC028091D8008F7C80618093D8003F
:101160008091E000807F8093E0008091E1008E7E9E
:101170008093E1008DE08093E200559A209A61E02F
:1011800080E00E94960261E081E00E94960262E0A7
:1011900083E00E94960262E082E00E94960262E092
:1011A00089E30E94960262E08DE20E94960262E06C
:1011B00087E00E94960262E088E00E94960262E068
:1011C00085E10E94960262E081E20E94960262E05E
:1011D00084E00E94960262E085E00E94960262E04E
:1011E00086E00E94960262E080E10E94960262E040
:1011F0008EE00E94960262E08FE00E949602812CAF
:10120000912C5401839458E0752E60E8662E79E0A5
:10121000572EE0E94E2E30E0C32E30E0D32E23E1EE
:10122000E22E21E0F22E10E000E0F70121917F0193
:1012300030E0F901E857FE4F9491F901E759FE4F6C
:101240008491265B3E4FF9012491222309F4BBC00F
:101250009923E9F091509F30D0F4E92FF0E0ED5C54
:10126000F64F0C94020ABE09C2094209B609BA092E
:10127000470947094709C509CB09CF09D309D90946
:101280004709DD09909180009F7790938000E22FBD
:10129000F0E0EE0FFF1FE45CFE4FA591B491EC91DE
:1012A000B501A401002E04C0440F551F661F771F0F
:1012B0000A94D2F7909164018E2309F484C040957A
:1012C0004923409364010F5F1F4F0830110509F057
:1012D000ACCF10E000E08FE7F82E2091640130E001
:1012E000002E02C0359527950A94E2F7A09163017C
:1012F0008A2F90E0002E02C0959587950A94E2F718
:10130000822780FF26C0B501A401002E04C0440F2F
:10131000551F661F771F0A94D2F7F801E55EFE4F4E
:1013200090818091BA018F5F20FF63C04A2B409368
:10133000630159824A829B83FC8244E050E0BE01F3
:101340006F5F7F4F0E941E038091BA018F5F0E94E2
:101350009A010F5F1F4F0830110509F0BECFC1146D
:10136000D10409F45CCF0E94000055CF9091800019
:101370009F7D8BCF90918000977F87CF94B59F778B
:1013800094BD85CF94B59F7DFBCF909190009F77C2
:10139000909390007CCF909190009F7DF9CF909199
:1013A0009000977FF5CF9091C0009F779093C000F9
:1013B0006ECF9091C0009F7DF9CF9091C200977F32
:1013C0009093C20064CF20916401D501C401002E26
:1013D00004C0880F991FAA1FBB1F0A94D2F7822B43
:1013E0008093640162E370E080E090E00E94EC0290
:1013F0006ACF40954A234093630179826A829B8336
:101400001C829BCFEE0FFF1F0590F491E02D0994F5
:04141000F894FFCF7E
:10141400FFFFFFFF00E100000000000000C1808129
:101424000000000302392D07081521303234353706
:10143400393B2F000000002801B8033F02A40180BB
:10144400013E015C0100000000D103D303CE03A3DD
:06145400044D494449006B
:00000001FF
