:100000000C94DB000C9403010C9403010C94030189
:100010000C9403010C9403010C9403010C94030150
:100020000C9403010C9403010C9463050C94D20509
:100030000C9403010C9403010C9403010C94030130
:100040000C9403010C9403010C9403010C94030120
:100050000C9403010C9403010C9403010C94040808
:100060000C9403010C9403010C9403010C94030100
:100070000C9403010C9403010C9403010C940301F0
:100080000C9403010C9403010C9403010C940301E0
:100090000C9403010C9403010C9403010C940301D0
:1000A0000C9403010C9403010C9403010000000064
:1000B000240027002A002D0030000000000023004B
:1000C000260029002C002F00080B0002020200006D
:1000D00009040000010202000005240010010524AB
:1000E000010101042402060524060001070581031D
:1000F00010004009040100020A0000000705020286
:1001000040000007058302400000040309041201B7
:100110000002EF0201404F1B0692000101020301A1
:10012000537061726B46756E00537061726B4675E9
:100130006E2050726F204D6963726F0007060504D0
:100140000100080A0B0C0D090000000200090F0055
:1001500000030401000C000000000000000000008B
:100160000000000000000408020110408040102040
:10017000408040800802040180402010020110806D
:10018000102040402000000000250028002B002EF9
:100190000031000404040404030405020202020402
:1001A0000302020202060606060606040402020212
:1001B00004048108F50B11241FBECFEFDAE0DEBF87
:1001C000CDBF11E0A0E0B1E0EEEBFCE102C0059094
:1001D0000D92A033B107D9F725E0A0E3B1E001C04B
:1001E0001D92AB3BB207E1F710E0CAEDD0E004C0CE
:1001F0002197FE010E94200DC93DD107C9F70E9439
:10020000FC080C94520E0C9400004F925F926F9277
:100210007F928F929F92AF92BF92FF922091A305FF
:100220003091A4058217930708F043C02B01662480
:100230007724852E962EA72EBB24B82DA42F20918F
:10024000A905F42C222391F0E22FF0E0E49DD001E7
:10025000E59DB00DF49DB00D1124FB2E289D4001AD
:100260001124B92D249F90011124A32FE091AF05F3
:100270002091AA053091AB055091AC05E51323C040
:10028000FC01EE0FFF1F8E0F9F1F820F931FE09147
:10029000AC05E80FF92FF11DF082E091AD05E80FF4
:1002A000F92FF11DB0832091AE05820F911DFC0145
:1002B000A083FF90BF90AF909F908F907F906F90A2
:1002C0005F904F900895880F991F880F991F820F94
:1002D000931FE80FF92FF11D1082D9CFFC018091F7
:1002E0005005882311F13FB7F89482E08093E9002C
:1002F0002091F200822F90E01816190614F481E084
:1003000090E0882339F0289844E640934F054091C7
:10031000F1004083222339F02091F200211103C023
:100320002BE62093E8003FBF08958FEF9FEF0895DD
:100330002FB7F89483E08093E9009091E800892F2B
:10034000807295FF04C09091F20080E4891B2FBF5A
:1003500008958091470581110DC082E08093430587
:1003600084E080934405109246051092450581E093
:100370008093470583E495E00895409137015091BB
:100380003801209135013091360142175307B4F4FA
:100390009091E8009570E1F39091E80092FD19C00A
:1003A0008093F100809137019091380101968F730D
:1003B0009927892B19F48EEF8093E80080913701FB
:1003C000909138010196909338018093370181E034
:1003D000089580E00895DF92EF92FF920F931F93AC
:1003E000CF93DF93D82E8A01EB017B01E40EF51E3B
:1003F000CE15DF0559F0D7FE12C0FE0184910E9490
:10040000BD0121968111F4CF0FEF1FEFC801DF91DD
:10041000CF911F910F91FF90EF90DF900895888109
:10042000EECF0F931F93CF93DF931F92CDB7DEB71D
:1004300082E0898342E450E068EC70E080E80E944A
:10044000EB010E94A901DC0112960D911C9101158E
:10045000110589F0D801ED91FC910280F381E02D26
:10046000BE016F5F7F4FC801099597FD04C0F80179
:1004700000851185ECCF89810F90DF91CF911F917D
:100480000F910895615030F02091F100FC0120831C
:100490000196F8CF289884E680934F050895CF936E
:1004A000DF931F92CDB7DEB76983DC01ED91FC913C
:1004B0000280F381E02D41E050E0BE016F5F7F4F8D
:1004C00009950F90DF91CF91089583E08093E90023
:1004D0008091F200882319F08AE38093E800089560
:1004E0000E94980190E00895CF93DF931F92CDB7BB
:1004F000DEB7FC018485958597FD08C02FEF3FEF9F
:10050000358724870F90DF91CF910895CE01019612
:100510000E946E01019719F4898190E0F3CF8FEF6B
:100520009FEFF0CF0F931F93CF93DF931F92CDB721
:10053000DEB78C01FC018485958597FF0BC0CE0149
:1005400001960E946E01019771F4898190E0F80193
:1005500095878487F801848595850F90DF91CF91E9
:100560001F910F9108958FEF9FEFF1CFFC018485CC
:10057000958597FD0BC09FB7F89482E08093E900C2
:100580008091F2009FBF90E0019608959FB7F89484
:1005900082E08093E9008091F2009FBF90E008958F
:1005A00081508F3008F047C0E82FF0E0E652FD4F51
:1005B0000C94200DF702FB02E902EF02F3021B0389
:1005C0001B031B03FE02040308030C0312031B039B
:1005D0001603809180008F7780938000089580912A
:1005E00080008F7DF9CF80918000877FF5CF84B523
:1005F0008F7784BD089584B58F7DFBCF8091900067
:100600008F77809390000895809190008F7DF9CF2F
:1006100080919000877FF5CF8091C0008F77809385
:10062000C00008958091C0008F7DF9CF8091C200F5
:10063000877F8093C2000895CF93DF93282F30E007
:10064000F901E85BFE4F8491F901EA59FE4FD4911C
:10065000F901ED56FE4FC491CC2391F081110E9417
:10066000D002EC2FF0E0EE0FFF1FEB57FE4FA591ED
:10067000B4918FB7F894EC91D095DE23DC938FBFC3
:10068000DF91CF910895CF93DF93282F30E0F901C8
:10069000E85BFE4F8491F901EA59FE4FD491F901CC
:1006A000ED56FE4FC491CC23A1F081110E94D002DF
:1006B000EC2FF0E0EE0FFF1FE654FF4FA591B49131
:1006C000EC91ED2381E090E009F480E0DF91CF919F
:1006D000089580E090E0FACFCF93DF9390E0FC01A3
:1006E000EA59FE4F24918D569E4FFC018491882338
:1006F000C9F090E0880F991FFC01E455FF4FA591C8
:10070000B491FC01EB57FE4FC591D49161110DC01E
:100710009FB7F8948C91209582238C93888128230D
:1007200028839FBFDF91CF910895623051F49FB726
:10073000F8943C91822F809583238C93E8812E2B13
:10074000EFCF8FB7F894EC912E2B2C938FBFEACF7D
:100750003FB7F8948091310190913201A09133011B
:10076000B091340126B5A89B05C02F3F19F0019622
:10077000A11DB11D3FBFBA2FA92F982F8827BC01FB
:10078000CD01620F711D811D911D42E0660F771F23
:10079000881F991F4A95D1F70895CF92DF92EF9263
:1007A000FF920F931F93CF93DF93CDB7DEB72997B7
:1007B0000FB6F894DEBF0FBECDBF8091AA05909111
:1007C000AB05892B09F480C0C090B005D090B1056D
:1007D000E090B205F090B3050E94A8036C157D056A
:1007E0008E059F0550F40E94A8036093B005709396
:1007F000B1058093B2059093B3050E94A8030091C0
:10080000B0051091B1052091B2053091B305601B80
:10081000710B820B930B6C32714081059105A0F234
:10082000F8948091A5059091A6059A838983E0911B
:10083000AA05F091AB05DF0111968081898790911F
:10084000A105E091B405F091B5058091B605992315
:1008500009F449C09081982B9887908180958923CD
:100860008F838F818C8388E08B8358856F81498546
:100870003B812C8189819A81508347FD252F3A95B0
:100880002083262F39F0441F00C000006083000041
:1008900000C0F2CF38E04D9160830000019761F70E
:1008A000F093B505E093B40549873B832C839A8385
:1008B000898378940E94A8036093B0057093B10572
:1008C0008093B2059093B30529960FB6F894DEBFD6
:1008D0000FBECDBFDF91CF911F910F91FF90EF9091
:1008E000DF90CF9008959081982B98879081809584
:1008F00089238F838F818E8388E08D8358856F81D4
:1009000049853D812E8189819A81508347FD252F1C
:1009100000C000C0208300C000C000C000C000C0F4
:1009200060830000262F3A9541F0441F000000C06C
:1009300000C000C000C000C0E8CF38E04D9100C04A
:10094000608300C0019709F7F093B505E093B40503
:1009500049873D832E83ABCF8F929F92AF92BF92F8
:10096000CF92DF92EF92FF924B015C010E94A803AD
:100970006B017C010E94A8036C197D098E099F09F7
:10098000683E734081059105A8F321E0821A910821
:10099000A108B10888EEC80E83E0D81EE11CF11C46
:1009A00081149104A104B10429F7FF90EF90DF9026
:1009B000CF90BF90AF909F908F9008958F929F920D
:1009C000AF92BF92CF92DF92EF92FF920F931F935D
:1009D000CF93DF936C017B018A0180910B01882307
:1009E00009F45CC080915005882309F457C08091B8
:1009F0003B0180FF05C08091E00082608093E000B1
:100A0000E801B12C8AEFA82E93E0892E2AE3922EDA
:100A1000209711F4BB20D9F10E94980181110AC0DE
:100A2000AA94AA20D9F161E070E080E090E00E94F1
:100A3000AC04EECF8C171D0611F00CF08C2F9FB775
:100A4000F8948092E9002091E80025FD02C09FBF44
:100A5000DFCF282F30E0C21BD30BF701815020F0ED
:100A600041914093F100FACFE20EF31EBB2021F03A
:100A70009092E800B12CEBCF8091E80085FDE7CFA4
:100A80009092E800BB24B394209709F3F3CF5D98CC
:100A900084E680933A01101611063CF081E090E064
:100AA000F6019383828310E000E0C801DF91CF91CB
:100AB0001F910F91FF90EF90DF90CF90BF90AF907C
:100AC0009F908F9008951F920F920FB60F9211244E
:100AD0008F939F938091E1009091E100937F909399
:100AE000E10083FF0FC01092E90091E09093EB00CA
:100AF0001092EC0092E39093ED001092500598E074
:100B00009093F00082FF22C093E09093E9009091CF
:100B1000F200992319F09AE39093E80090913A013A
:100B2000992341F090913A01915090933A0191119B
:100B300001C05D9A90914F05992341F090914F0526
:100B4000915090934F05911101C0289A84FF18C0CD
:100B50008091E2008E7E81608093E2008091E100CE
:100B60008F7E8093E10080913B018E7E8061809337
:100B70003B019F918F910F900FBE0F901F90189582
:100B800080FFF7CF8091E2008E7E80618093E2004B
:100B90008091E1008E7E8093E10080913B018E7E0A
:100BA0008160E5CF1F920F920FB60F921124CF9262
:100BB000DF92EF92FF920F931F932F933F934F93E8
:100BC0005F936F937F938F939F93AF93BF93EF93B5
:100BD000FF93CF93DF93CDB7DEB76C97DEBFCDBF6A
:100BE0001092E9008091E80083FF25C068E0CE0103
:100BF00045960E94420282EF8093E8008D8987FF2C
:100C000039C09091E80090FFFCCF982F907609F0C2
:100C100034C19E894F89588D2F89F88C911131C02C
:100C2000803861F580913C018093F1001092F100D1
:100C30008EEF8093E8006C960FB6F894DEBF0FBE7F
:100C4000CDBFDF91CF91FF91EF91BF91AF919F9178
:100C50008F917F916F915F914F913F912F911F9154
:100C60000F91FF90EF90DF90CF900F900FBE0F90FD
:100C70001F9018959EEF9093E800C7CF1092F10057
:100C8000D5CF913059F48111D3CF4130510581F640
:100C900080913C018D7F80933C01CACF933049F411
:100CA0008111C6CF4130510519F680913C01826017
:100CB000F2CF953041F48091E80080FFFCCF2068AE
:100CC0002093E300B5CF963009F0A9C00B8D1C8DA1
:100CD00022E01092E9001092380110923701F212CE
:100CE0002EC010923601109235010E9411021F820F
:100CF00099E09983FA8291E09E8390EA98879AEF2F
:100D000099872091370130913801275F3F4F3C830D
:100D10002B838D831092E9001092380110923701D5
:100D2000109336010093350149E050E0BE016F5F3A
:100D30007F4F80E00E94EB010E94110279CF109357
:100D40003601009335010E94A901DC0112960D9134
:100D50001C910115110509F451C1D801ED91FC91C7
:100D60000480F581E02DBE016B5E7F4FC8010995BF
:100D7000009709F03EC1F80100851185EACFF3E044
:100D8000FF120EC08F89882309F440C0823061F4BD
:100D900040E862E189E291E00E944E08811148CF6B
:100DA00081E28093EB0047CF813029F440E868E08E
:100DB00080E291E0F1CF833099F70E94A901DC0134
:100DC0001296ED90FC908E010F5F1F4F6801E114A9
:100DD000F10479F0D701ED91FC910680F781E02DC7
:100DE000B801C7010995080F111DF701E084F184CE
:100DF000EECFD8011C92F60101900020E9F731975F
:100E0000BF016C197D0940E0C601C6CF6AE071E000
:100E1000FB01449150E080E80E94EB0109CF97303C
:100E200009F4BECF983021F481E08093F10000CF27
:100E3000993009F0FDCE837009F0B2CFE7E1F1E01F
:100E400081E031E096E32191222371F08093E90063
:100E50003093EB00DF0111972C912093EC009093DD
:100E6000ED008F5F873079F78EE78093EA0010926C
:100E7000EA008F8980935005DBCE8B8D9C8D10927C
:100E8000E900109238011092370190933601809357
:100E90003501898D811192C08E899D89913A49F4DD
:100EA000813209F07DCF47E050E064E071E080E0FE
:100EB000B3CF913209F074CF833269F48F89988D62
:100EC000B0E0A0E08093000190930101A0930201A3
:100ED000B0930301ADCE803269F48091E80082FFC7
:100EE000FCCF67E084E091E00E9442028BEF8093A8
:100EF000E8009ECE823209F09BCE8F8980930B0151
:100F0000EEEFFFE7859194918B3F9C4D51F1E0E02E
:100F1000F8E08091040190910501A0910601B09143
:100F20000701803B9440A105B105F1F480910B01CC
:100F300080FD1AC0EE3F8AE0F80789F587E797E75A
:100F400091838083809160008093390188E19BE0E8
:100F50000FB6F894A895809360000FBE9093600040
:100F600067CEEEEFFAE0D5CF808191818737974742
:100F700009F05ECEA8958091600088618093600042
:100F80008091390180936000EE3F2AE0F20789F0FA
:100F90008091FE0A9091FF0A9183808349CE8081DF
:100FA00091818737980751F29093FF0A8093FE0A48
:100FB000C5CF1092FF0A1092FE0A3ACE0E94A901F4
:100FC000DC0112960D911C910115110509F4E8CE72
:100FD000D801ED91FC910190F081E02DBE016B5E96
:100FE0007F4FC8010995811123CEF8010085118535
:100FF000EBCF181619060CF41BCED2CEF1E0FF127F
:10100000BECE6EE071E004CF1F920F920FB60F922A
:1010100011242F933F938F939F93AF93BF9380910E
:101020003D0190913E01A0913F01B091400130916E
:10103000300123E0230F2D3758F50196A11DB11D76
:101040002093300180933D0190933E01A0933F0196
:10105000B09340018091310190913201A091330110
:10106000B09134010196A11DB11D8093310190937F
:101070003201A0933301B0933401BF91AF919F919E
:101080008F913F912F910F900FBE0F901F90189549
:1010900026E8230F0296A11DB11DD2CFEF92FF9239
:1010A0000F931F93CF93DF93F82E192FE62E042F63
:1010B00081E0860F880F0E94BD0183E00E94BD0180
:1010C000CF2DD12FEC0EFD2EF11CCE15DF05B9F082
:1010D00007FF13C0FE0184910E94BD01182F80E01C
:1010E0000E94BD01812321968111EFCFDF91CF9125
:1010F0001F910F91FF90EF9008958881EDCF81E0CF
:10110000F5CF109254051092530588EE93E0A0E0BD
:10111000B0E08093550590935605A0935705B09382
:10112000580581E291E090935205809351058FEF2D
:101130009FEF90935E0580935D051092A20510923B
:10114000A9051092B0051092B1051092B205109247
:10115000B30581E08093AF058093AC051092AD0597
:1011600092E09093AE058093A10588E190E0909382
:10117000A6058093A5050E94260D9093AB0580934C
:10118000AA05009781F128E1FC0111922A95E9F75F
:1011900088E090E09093A4058093A3058AE090E016
:1011A0009093A8058093A7058091A205882339F024
:1011B00061E08AE00E946C038AE00E941C03EDE972
:1011C000F1E0E491F0E0EE0FFF1FEB57FE4F859149
:1011D00094919093B5058093B405E0E7F1E0E49134
:1011E000E093B60508951092A6051092A5051092F9
:1011F000A4051092A305D2CF789484B5826084BDF3
:1012000084B5816084BD85B5826085BD85B581600A
:1012100085BD80916E00816080936E001092810088
:101220008091810082608093810080918100816043
:101230008093810080918000816080938000809104
:1012400091008260809391008091910081608093F1
:101250009100809190008160809390008091C10006
:1012600084608093C1008091C10082608093C1003E
:101270008091C10081608093C1008091C300816032
:101280008093C3008091C00082608093C0008091F1
:10129000C20081608093C20080917A008460809354
:1012A0007A0080917A00826080937A0080917A003F
:1012B000816080937A0080917A00806880937A00C0
:1012C0001092500510923C0110923B018091D70082
:1012D00081608093D70080EA8093D80089B58061CF
:1012E00089BD89B5826089BD09B400FEFDCF61E08A
:1012F00070E080E090E00E94AC048091D8008F7C88
:1013000080618093D8008091E000807F8093E0002E
:101310008091E1008E7E8093E1008DE08093E20079
:10132000559A209A8FEF9FEF90935E0580935D050D
:1013300061E080E00E946C0361E081E00E946C0348
:1013400062E083E00E946C0362E082E00E946C0332
:1013500062E085E10E946C0362E084E10E946C031C
:1013600062E087E00E946C0362E088E00E946C0308
:1013700062E082E10E946C0362E083E10E946C0300
:1013800062E084E00E946C0362E085E00E946C03EE
:1013900062E086E00E946C0362E080E10E946C03E0
:1013A00062E08EE00E946C0362E08FE00E946C03BA
:1013B0008091A7059091A80597FD07C061E00E9464
:1013C0006C038091A7050E941C0381E08093A20515
:1013D0006091A905633329F12091AA053091AB05ED
:1013E0006150C9F070E08FEF92E30E940C0DF9019B
:1013F0004091A5055091A605CF01821B930B841740
:10140000950760F44081469FC001479F900D1124CD
:1014100090833196EDCF70E060E0E9CF83E3809375
:10142000A9050E94CD03ECE3F1E0E49190917B00EB
:101430008E2F880F880F80729F7D892B80937B0071
:10144000E770E064E0937C0080917A008064809390
:101450007A0080917A0086FDFCCF809178006091BF
:101460007900762F682F072E000C880B990B6115D9
:1014700071058105910511F00E94A00C84E0C82E31
:10148000D12CE12CF12C00E010E00E94510C2091B5
:1014900041053091420559014FEFA41AB40AB092A8
:1014A0004205A0924105E901CF5BDE4FA7019601FD
:1014B0000E94A90C6883C1E4D1E0CE01815491401F
:1014C0008A159B050CF043C04091A5055091A605D7
:1014D00070E060E08091AA059091AB050E944B0EF0
:1014E0000E94CD0368E572E080E090E00E94AC04C9
:1014F0008991811111C040E050E06FEF70E090E001
:1015000080E00E9405010E94CD0368E572E080E062
:1015100090E00E94AC04D1CF813039F44FEF50E01D
:1015200060E070E081E090E0ECCF823039F440E0A0
:101530005FEF6FEF70E085E090E0E3CF833019F765
:1015400040E05FEF60E070E084E090E0DACF40E000
:1015500050E06FEF70E090E080E00E9405014FEFF7
:1015600050E060E070E081E090E00E94050140E022
:101570005FEF6FEF70E085E090E00E94050140E0D2
:101580005FEF60E070E084E090E00E9405010E945F
:10159000CD03C1E4D1E0B12C209141053091420549
:1015A000CE01815491408217930764F583E00E9435
:1015B0004303892B09F06AC040E050E0BA0190E093
:1015C00080E00E9405010E94CD0383E00E94430356
:1015D000892B39F464E170E080E090E00E94AC0473
:1015E000F4CF40E050E06FEF70E090E080E00E94C8
:1015F00005010E94CD0380E09991BB24B394981714
:1016000059F2B12C68E572E080E090E00E94AC04F1
:101610008091AA059091AB054091A5055091A60532
:1016200070E060E0BB2009F4A4C00E944B0E40E0D3
:101630005FEF60E070E082E090E00E94050140E032
:101640005FEF60E070E083E090E00E94050140E021
:101650005FEF60E070E086E090E00E94050140E00E
:101660005FEF60E070E087E090E00E9405010E947B
:10167000CD0368EE73E080E090E00E94AC040115B9
:10168000110509F402CF0E940000FFCE82E00E9403
:101690004303892B09F540E050E0BA0181E090E076
:1016A0000E9405010E94CD0382E00E944303892B22
:1016B00039F464E170E080E090E00E94AC04F4CF83
:1016C0004FEF50E060E070E081E090E00E940501A3
:1016D0000E94CD0381E090CF87E00E944303892BD5
:1016E00009F540E050E0BA0184E090E00E94050175
:1016F0000E94CD0387E00E944303892B39F464E103
:1017000070E080E090E00E94AC04F4CF40E05FEF36
:1017100060E070E084E090E00E9405010E94CD034B
:1017200083E06ACF88E00E944303892B09F03ECF13
:1017300040E050E0BA0185E090E00E9405010E947F
:10174000CD0388E00E944303892B39F464E170E003
:1017500080E090E00E94AC04F4CF40E05FEF6FEFD8
:1017600070E085E090E00E9405010E94CD0382E0D8
:1017700043CF0E944B0E40E050E06FEF70E082E0FC
:1017800090E00E94050140E050E06FEF70E083E0E0
:1017900090E00E94050140E050E06FEF70E086E0CD
:1017A00090E00E94050140E050E06FEF70E087E0BC
:1017B00090E00E9405010E94CD0310924205109214
:1017C00041052FB7F89460913D0170913E018091E1
:1017D0003F01909140012FBF611571058105910571
:1017E00009F447CF0E94A00C44CF8091AA059091A4
:1017F000AB050E94C20D8091A7059091A80597FDA9
:1018000003C060E00C946C0308958F929F92AF9296
:10181000BF92CF92DF92EF92FF92CF93DF93EC01D2
:10182000688179818A819B816115710581059105A6
:1018300021F464E279ED8BE597E02DE133EF41E0AF
:1018400050E00E94A90C49015A019B01AC01A7EA92
:10185000B1E40E94C80C6B017C01ACEEB4EFA501B1
:1018600094010E94D60CC60ED71EE81EF91EF7FE84
:1018700006C081E0C81AD108E10880E8F80AC882E9
:10188000D982EA82FB82C701B6019F77DF91CF91AF
:10189000FF90EF90DF90CF90BF90AF909F908F9090
:1018A00008958F929F92AF92BF92CF92DF92EF9264
:1018B000FF9260910C0170910D0180910E01909149
:1018C0000F01611571058105910521F464E279ED3F
:1018D0008BE597E02DE133EF41E050E00E94A90C49
:1018E00049015A019B01AC01A7EAB1E40E94C80C6E
:1018F0006B017C01ACEEB4EFA50194010E94D60C03
:10190000C60ED71EE81EF91EF7FE06C081E0C81AF3
:10191000D108E10880E8F80AC0920C01D0920D01CC
:10192000E0920E01F0920F01C701B6019F77FF9080
:10193000EF90DF90CF90BF90AF909F908F900895E1
:1019400060930C0170930D0180930E0190930F0131
:101950000895052E97FB1EF400940E94C00C57FDBD
:1019600007D00E94DB0C07FC03D04EF40C94C00C93
:1019700050954095309521953F4F4F4F5F4F0895BB
:1019800090958095709561957F4F8F4F9F4F0895EB
:101990000E94FD0CA59F900DB49F900DA49F800DFB
:1019A000911D11240895B7FF0C94C80C0E94C80C17
:1019B000821B930B0895A1E21A2EAA1BBB1BFD01EB
:1019C0000DC0AA1FBB1FEE1FFF1FA217B307E4071E
:1019D000F50720F0A21BB30BE40BF50B661F771F76
:1019E000881F991F1A9469F7609570958095909556
:1019F0009B01AC01BD01CF010895A29FB001B39F2F
:101A0000C001A39F700D811D1124911DB29F700D07
:101A1000811D1124911D0895AA1BBB1B51E107C014
:101A2000AA1FBB1FA617B70710F0A61BB70B881F6E
:101A3000991F5A95A9F780959095BC01CD010895FD
:101A4000EE0FFF1F0590F491E02D09940F931F9363
:101A5000CF93DF938230910510F482E090E0E09123
:101A6000B905F091BA0530E020E0B0E0A0E0309791
:101A700099F42115310509F44AC0281B390B24308B
:101A80003105D8F58A819B816115710589F1FB01CA
:101A900093838283FE0111C04081518102811381B1
:101AA00048175907E0F04817590799F4109761F063
:101AB00012960C93129713961C933296CF01DF91D6
:101AC000CF911F910F9108950093B9051093BA0516
:101AD000F4CF2115310551F04217530738F0A90111
:101AE000DB019A01BD01DF01F801C1CFEF01F9CFA0
:101AF0009093BA058093B905CDCFFE01E20FF31F95
:101B0000819391932250310939832883D7CF209133
:101B1000B7053091B805232B41F420911201309183
:101B200013013093B8052093B7052091100130912F
:101B300011012115310541F42DB73EB74091140133
:101B400050911501241B350BE091B705F091B805B4
:101B5000E217F307A0F42E1B3F0B2817390778F084
:101B6000AC014E5F5F4F2417350748F04E0F5F1FE3
:101B70005093B8054093B705819391939FCFF0E0C0
:101B8000E0E09CCFCF93DF930097E9F0FC01329720
:101B900013821282A091B905B091BA05ED0130E02F
:101BA00020E01097A1F420813181820F931F2091B2
:101BB000B7053091B8052817390709F061C0F093CF
:101BC000B805E093B705DF91CF910895EA01CE17EC
:101BD000DF07E8F54A815B819E0141155105B1F7A8
:101BE000E901FB83EA8349915991C40FD51FEC1792
:101BF000FD0761F4808191810296840F951FE901B0
:101C000099838883828193819B838A83F0E0E0E0DB
:101C100012968D919C9113970097B9F52D913C9157
:101C20001197CD010296820F931F2091B705309135
:101C3000B8052817390739F6309751F51092BA05CB
:101C40001092B905B093B805A093B705BCCFD38364
:101C5000C28340815181840F951FC817D90761F451
:101C60004E5F5F4F88819981480F591F5183408390
:101C70008A819B81938382832115310509F0B0CF3E
:101C8000F093BA05E093B9059ECFFD01DC01C0CF0A
:101C900013821282D7CFDC0101C06D9341505040B6
:101CA000E0F7089510E0CAEDD0E004C0FE010E9404
:0E1CB000200D2196CB3DD107C9F7F894FFCF48
:101CBE00FFFFFFFF00E10000000000000100000038
:101CCE000000BB05800000C1808100000000000004
:101CDE00004F02DE0470026502B602740292020028
:00000001FF
