:100000000C94A2010C94CA010C94CA010C94CA016C
:100010000C94CA010C94CA010C94CA010C94CA0134
:100020000C94CA010C94CA010C943E0A0C94AD0ABB
:100030000C94CA010C94CA010C94CA010C94CA0114
:100040000C94CA010C94CA010C94CA010C94CA0104
:100050000C94CA010C94CA010C94CA010C94D90CDA
:100060000C94CA010C94CA010C94CA010C94CA01E4
:100070000C94CA010C94CA010C94CA010C94CA01D4
:100080000C94CA010C94CA010C94CA010C94CA01C4
:100090000C94CA010C94CA010C94CA010C94CA01B4
:1000A0000C94CA010C94CA010C94CA01000000000F
:1000B0000000000000000000000000002A002B00EB
:1000C0002800000000000000000000000000000008
:1000D0000000000000000000000000000000000020
:1000E0000000000000000000000000002C001E02C4
:1000F00034022002210222022402340026022702B6
:1001000025022E0236002D003700380027001E0081
:100110001F002000210022002300240025002600CB
:100120003302330036022E00370238021F02040267
:10013000050206020702080209020A020B020C026B
:100140000D020E020F02100211021202130214021B
:10015000150216021702180219021A021B021C02CB
:100160001D022F003100300023022D023500040053
:10017000050006000700080009000A000B000C003B
:100180000D000E000F0010001100120013001400EB
:10019000150016001700180019001A001B001C009B
:1001A0001D002F0231023002350200000501090650
:1001B000A101050719E029E715002501750195083A
:1001C0008102050C95017508150026FF001900290C
:1001D000FF8100050819012908950875019102059C
:1001E0000795067508150026E700190029E7810024
:1001F000C000000000240027002A002D003000006D
:100200000000002300260029002C002F0000000021
:100210000200090F0000030401000C0000000000B0
:100220000000000000000000000000080B000202B7
:100230000200000904000001020200000524001071
:10024000010524010101042402060524060001071A
:1002500005810310004009040100020A00000007A4
:100260000502024000000705830240000004030964
:100270000412010002EF0201404F1B06920001012F
:10028000020301537061726B46756E0053706172A8
:100290006B46756E2050726F204D6963726F00055A
:1002A000010906A1018502050719E029E7150025C6
:1002B00001750195088102050C9501750815002648
:1002C000FF00190029FF8100050795067508150034
:1002D00026E700190029E78100C0050C0901A101EA
:1002E0008504150026FF0319002AFF0395047510E5
:1002F0008100C0040802011040804010204080406E
:10030000800802040180402010020110801020406B
:10031000402000000000250028002B002E003100A6
:10032000040404040403040502020202040302029A
:10033000020206060606060604040202020404007F
:10034000630D171211241FBECFEFDAE0DEBFCDBF61
:1003500011E0A0E0B1E0E6EEF6E202C005900D92F9
:10036000AA3CB107D9F722E0AAECB1E001C01D9286
:10037000A43CB207E1F711E0C1EAD1E004C0219743
:10038000FE010E943B12C03AD107C9F70E94970EA6
:100390000C9466130C940000FC01809109028823E0
:1003A00011F13FB7F89482E08093E9002091F200C8
:1003B000822F90E01816190614F481E090E088234B
:1003C00039F0289844E6409308024091F1004083B8
:1003D000222339F02091F200211103C02BE6209353
:1003E000E8003FBF08958FEF9FEF08954091F60119
:1003F0005091F7012091F4013091F5014217530714
:10040000B4F49091E8009570E1F39091E80092FDCA
:1004100019C08093F1008091F6019091F701019647
:100420008F739927892B19F48EEF8093E8008091C0
:10043000F6019091F70101969093F7018093F601F0
:1004400081E0089580E00895DF92EF92FF920F938C
:100450001F93CF93DF93D82E8A01EB017B01E40E2B
:10046000F51ECE15DF0559F0D7FE12C0FE018491AE
:100470000E94F60121968111F4CF0FEF1FEFC80102
:10048000DF91CF911F910F91FF90EF90DF90089532
:100490008881EECF2FB7F89487708093E900909110
:1004A000E800892F807295FF04C09091F20080E4EB
:1004B000891B2FBF0895615030F02091F100FC019D
:1004C00020830196F8CF289884E680930802089547
:1004D000AF92BF92DF92EF92FF920F931F93CF9351
:1004E000DF935C018B01EB019BEFD92E2097C1F0CC
:1004F0007E01C134D1051CF080E4E82EF12C8091FE
:10050000E80082FFFCCFC8018C1B9D0B6E2D8A0D6D
:100510009B1D0E945B02D092E800CE19DF09E6CF56
:10052000C801DF91CF911F910F91FF90EF90DF9065
:10053000BF90AF900895AF92BF92CF92DF92EF92AB
:10054000FF920F931F93CF93DF936C017B018B017D
:10055000040F151FEB015E01AE18BF08C017D107CD
:1005600059F06991D601ED91FC910190F081E02D57
:10057000C6010995892B79F7C501DF91CF911F91AC
:100580000F91FF90EF90DF90CF90BF90AF900895C4
:100590008091EC0181110DC082E08093E80184E03C
:1005A0008093E9011092EB011092EA0181E08093BF
:1005B000EC0188EE91E008950F931F93CF93DF93A2
:1005C0001F92CDB7DEB782E0898342E450E06BE250
:1005D00072E080E80E9424020E94C802DC011296A8
:1005E0000D911C910115110589F0D801ED91FC9137
:1005F0000280F381E02DBE016F5F7F4FC801099536
:1006000097FD04C0F80100851185ECCF89810F901A
:10061000DF91CF911F910F910895CF93DF93FC014C
:10062000DB01818114963C911497682F630F772723
:10063000771F683071059CF5C281D381209739F509
:10064000B383A283908112969C93129713968C93F6
:10065000139715968C911597890F808390E080E011
:10066000831708F52181C22FD0E0BE0160507F4F73
:1006700016964D915C911797480F591FEA014881D2
:10068000EB0148832F5F21830196EACFEA01488579
:10069000598541155105D1F7B987A887D3CF80E097
:1006A000DF91CF91089581E0FBCFCF93DF931F922D
:1006B000CDB7DEB76983DC01ED91FC910280F38157
:1006C000E02D41E050E0BE016F5F7F4F09950F9034
:1006D000DF91CF91089583E08093E9008091F2004B
:1006E000882319F08AE38093E800089583E00E944C
:1006F0004A0290E00895CF93DF931F92CDB7DEB703
:10070000FC018485958597FD08C02FEF3FEF358765
:1007100024870F90DF91CF910895CE0101960E941A
:10072000CC01019719F4898190E0F3CF8FEF9FEF0F
:10073000F0CF0F931F93CF93DF931F92CDB7DEB708
:100740008C01FC018485958597FF0BC0CE01019635
:100750000E94CC01019771F4898190E0F80195879E
:100760008487F801848595850F90DF91CF911F9143
:100770000F9108958FEF9FEFF1CFFC018485958550
:1007800097FD0BC09FB7F89482E08093E9008091B9
:10079000F2009FBF90E0019608959FB7F89482E021
:1007A0008093E9008091F2009FBF90E0089581500E
:1007B0008F3008F047C0E82FF0E0EF51FC4F0C9469
:1007C0003B12FE030204F003F603FA0322042204A0
:1007D000220405040B040F041304190422041D044D
:1007E000809180008F7780938000089580918000B1
:1007F0008F7DF9CF80918000877FF5CF84B58F778B
:1008000084BD089584B58F7DFBCF809190008F7754
:10081000809390000895809190008F7DF9CF809112
:100820009000877FF5CF8091C0008F778093C000C4
:1008300008958091C0008F7DF9CF8091C200877F9D
:100840008093C2000895CF93DF93282F30E0F90101
:10085000E35FFD4F8491F901ED50FD4FD491F90113
:10086000E05EFC4FC491CC23A1F081110E94D7031C
:10087000EC2FF0E0EE0FFF1FE150FE4FA591B49179
:10088000EC91ED2381E090E009F480E0DF91CF91DD
:10089000089580E090E0FACF1F93CF93DF93282F45
:1008A00030E0F901E35FFD4F8491F901ED50FD4F18
:1008B000D491F901E05EFC4FC491CC23A9F0162F2E
:1008C00081110E94D703EC2FF0E0EE0FFF1FEE5EC8
:1008D000FC4FA591B4918FB7F894EC91111108C019
:1008E000D095DE23DC938FBFDF91CF911F910895C8
:1008F000DE2BF8CFCF93DF9390E0FC01ED50FD4F5E
:100900002491805E9C4FFC0184918823C9F090E083
:10091000880F991FFC01EF50FE4FA591B491FC0187
:10092000EE5EFC4FC591D49161110DC09FB7F89454
:100930008C91209582238C938881282328839FBFC4
:10094000DF91CF910895623051F49FB7F8943C91B4
:10095000822F809583238C93E8812E2BEFCF8FB746
:10096000F894EC912E2B2C938FBFEACF3FB7F894DD
:100970008091E4019091E501A091E601B091E70139
:1009800026B5A89B05C02F3F19F00196A11DB11DEA
:100990003FBFBA2FA92F982F8827BC01CD01620F26
:1009A000711D811D911D42E0660F771F881F991FE1
:1009B0004A95D1F70895CF92DF92EF92FF920F936D
:1009C0001F93CF93DF93CDB7DEB729970FB6F89477
:1009D000DEBF0FBECDBFC090B902D090BA02E0908A
:1009E000BB02F090BC020E94B6046C157D058E051A
:1009F0009F0550F40E94B6046093B9027093BA0246
:100A00008093BB029093BC020E94B6040091B9028D
:100A10001091BA022091BB023091BC02601B710B95
:100A2000820B930B6C32714081059105A0F2F89412
:100A30008091AE029091AF029A838983E091B302D4
:100A4000F091B402DF011196808189879091AA020A
:100A5000E091BD02F091BE028091BF02992309F49A
:100A600049C09081982B98879081809589238F83A6
:100A70008F818C8388E08B8358856F8149853B818A
:100A80002C8189819A81508347FD252F3A952083B7
:100A9000262F39F0441F00C000006083000000C012
:100AA000F2CF38E04D9160830000019761F7F09339
:100AB000BE02E093BD0249873B832C839A838983DE
:100AC00078940E94B6046093B9027093BA0280933E
:100AD000BB029093BC0229960FB6F894DEBF0FBEFE
:100AE000CDBFDF91CF911F910F91FF90EF90DF90DD
:100AF000CF9008959081982B988790818095892335
:100B00008F838F818E8388E08D8358856F8149859F
:100B10003D812E8189819A81508347FD252F00C018
:100B200000C0208300C000C000C000C000C06083BF
:100B30000000262F3A9541F0441F000000C000C07D
:100B400000C000C000C0E8CF38E04D9100C0608315
:100B500000C0019709F7F093BE02E093BD024987F8
:100B60003D832E83ABCF8F929F92AF92BF92CF9255
:100B7000DF92EF92FF924B015C010E94B6046B0181
:100B80007C010E94B6046C197D098E099F09683E9C
:100B9000734081059105A8F321E0821A9108A1080C
:100BA000B10888EEC80E83E0D81EE11CF11C811448
:100BB0009104A104B10429F7FF90EF90DF90CF904A
:100BC000BF90AF909F908F9008957F928F929F9249
:100BD000AF92BF92CF92DF92EF92FF920F931F934B
:100BE000CF93DF93C82E8B017A0180910902811186
:100BF00010C08FEF9FEFDF91CF911F910F91FF906A
:100C0000EF90DF90CF90BF90AF909F908F907F90AC
:100C100008958091FA0180FF05C08091E000826014
:100C20008093E000CE2DDF2DD12C8AEFB82E8C2DB5
:100C30008770982E8C2D8072882E8C2D8074782E43
:100C40009AE3A92E209719F4DD2009F452C08C2DC7
:100C50000E944A0281110AC0BA94BB2051F261E09D
:100C600070E080E090E00E94B305ECCF8C171D0689
:100C700011F00CF08C2F9FB7F8949092E90020911E
:100C8000E80025FD02C09FBFDDCF282F30E0C21B4A
:100C9000D30B882029F08150A0F01092F100FBCFF7
:100CA000F801C7FC0AC0815050F041914093F10017
:100CB000FACF44914093F10031968150D0F7020F62
:100CC000131FDD2021F0A092E800D12CDCCF809111
:100CD000E80085FD07C0A092E800DD24D3942097AA
:100CE00091F2F3CF209779F6772069F2A092E8008D
:100CF000CACF5D9884E68093F901C7017CCFCF937A
:100D0000DF93EC0180911201882331F083E00E948F
:100D1000E5051816190634F081E090E09B838A837C
:100D200080E090E0DF91CF910895DC01FB01129605
:100D30002C911297848195812817190641F491818D
:100D40008081813A31F49D7F81E0913009F080E02B
:100D500008958132E1F79B3029F482811F968C93AC
:100D600081E008959A3099F7828150968C93F8CF5C
:100D7000AF92BF92CF92DF92EF92FF920F931F93A9
:100D8000CF93DF931F92CDB7DEB77C0169836A01F1
:100D9000590141E050E0BE016F5F7F4FFC0183814C
:100DA0000E94E5058C0197FD0BC0F7018381A50129
:100DB000B60180640E94E505080F191F97FD8C019C
:100DC000C8010F90DF91CF911F910F91FF90EF908D
:100DD000DF90CF90BF90AF900895DC01FB0188E4D5
:100DE000808389E4818384E482831D969C911D978E
:100DF0009F709F5B93831D968D919C9124E09695A7
:100E000087952A95E1F78F708F5B848385E008953D
:100E1000EF92FF920F931F93CF93DF93FB012081FB
:100E2000213871F52381223259F5DC0112964C915B
:100E3000248135814217130619F5EC010B851C85B9
:100E4000F12CE12C0115110589F0F801448155813F
:100E50006281738180E80E9424028F3F980749F0E5
:100E6000E80EF91ED8010D911C91ECCF81E08F871F
:100E7000C701DF91CF911F910F91FF90EF900895DF
:100E800090E080E0F6CFCF93DF93CDB7DEB76997E0
:100E90000FB6F894DEBF0FBECDBFFC01DB018C9115
:100EA0008F5F8C939E012D5F3F4F8DE0D9011D9286
:100EB0008A95E9F729E0298384E08A8391E09D837C
:100EC00083E08E832A8721E22B879C879D879F87DB
:100ED00022E2288B27E02B8B25E02C8B8E8B20E4C5
:100EE00030E0388F2F8B998F82818B839585868513
:100EF000998B8A8B838180688D8B49E150E0BE019C
:100F00006F5F7F4F80E00E94240269960FB6F894CD
:100F1000DEBF0FBECDBFDF91CF910895CF938091FB
:100F2000DB0181112CC0C1E0C093CE01C093CF0181
:100F300084ED91E09093D1018093D0011092D30180
:100F40001092D2018DE191E09093CB018093CA0180
:100F50001092D6011092D5011092D8011092D701AB
:100F6000C093D901C093DA0181EC8093D4010E942F
:100F7000C8026AEC71E00E940D03C093DB018AECA9
:100F800091E0CF910895CF93DF93EC01FB012A818B
:100F9000848195812817190609F04BC081819081C1
:100FA000913A79F4813029F0833039F48F89809334
:100FB000F10081E0DF91CF9108958230D1F5888DE5
:100FC000F6CF9132B1F58B3019F482818F8BF1CF4E
:100FD0008A3019F48281888FECCF893051F566818F
:100FE00077818381833079F48C8D9D8D68177907A3
:100FF00001F58A8D9B8D0E9468028C8D9D8D906875
:101000009D8F8C8FD6CF823051F46130710589F479
:1010100061E070E0CE0149960E946802CACF81303B
:1010200041F46830710529F468E070E0CE010E9655
:10103000F3CF80E0BFCFFB0120812138B1F42381C1
:10104000223299F4DC0112964C9112972481358159
:101050004217130651F421E057962C9345E450E0D3
:101060006CEA71E080E80C94240290E080E008953E
:10107000CF93DF93CDB7DEB769970FB6F894DEBF95
:101080000FBECDBFFC01DB019C919F5F9C939E0135
:101090002D5F3F4F81E1D9011D928A95E9F729E043
:1010A000298384E08A8391E09D8383E08E839F83FC
:1010B00098872A8721E22B879C879D879F8722E23A
:1010C000288B25E4298B27E02B8B25E02C8B8E8B1E
:1010D00020E430E0388F2F8B998F82818B8383813E
:1010E00080688D8B49E150E0BE016F5F7F4F80E0EB
:1010F0000E94240269960FB6F894DEBF0FBECDBFE2
:10110000DF91CF910895FC0182818F5BFB01808389
:1011100081E00895CF93DF93EC010E948E07AE012A
:101120004C5F5F4F28E030E062E0DF91CF910C949C
:10113000B806CF92DF92FF920F931F93CF93DF9366
:101140008C01F42EE62FF0E0EE0FFF1FE455FF4F69
:10115000C590D490D801ED91FC910484F585E02DE3
:101160006C2DC8010995EC01892B11F4F11070C0A8
:10117000D0FE0CC0D801ED91FC910484F585E02DE2
:101180004F2D60EEC8010995C82BD92BD1FE0CC09C
:10119000D801ED91FC910484F585E02D4F2D61EE91
:1011A000C8010995C82BD92BD2FE0CC0D801ED91EE
:1011B000FC910484F585E02D4F2D62EEC801099560
:1011C000C82BD92BD3FE0CC0D801ED91FC9104841F
:1011D000F585E02D4F2D63EEC8010995C82BD92B5D
:1011E000D4FE0CC0D801ED91FC910484F585E02D6E
:1011F0004F2D64EEC8010995C82BD92BD5FE0CC024
:10120000D801ED91FC910484F585E02D4F2D65EE1C
:10121000C8010995C82BD92BD6FE0CC0D801ED9179
:10122000FC910484F585E02D4F2D66EEC8010995EB
:10123000C82BD92BD7FE0CC0D801ED91FC910484AA
:10124000F585E02D4F2D67EEC8010995C82BD92BE8
:10125000CE01DF91CF911F910F91FF90DF90CF9042
:101260000895FF920F931F93CF93DF93EC01F62E17
:1012700041E00E9499088C01892BA9F0E881F9814D
:101280000284F385E02DCE01099540E06F2DCE015B
:101290000E949908892B39F0E881F9810284F3854D
:1012A000E02DCE010995C801DF91CF911F910F91DB
:1012B000FF900895089590E080E008950F931F93A4
:1012C000CF93DF93EB018A010E948E079801AE0154
:1012D00064E0DF91CF911F910F910C94B806E2EA80
:1012E000F2E030E020E0419151912F5F3F4F452BDC
:1012F00079F4220F331FF901E056FD4F918380836B
:1013000048E050E062EA72E080EA92E00C945E0904
:101310002430310541F7F4CFE0EAF2E02281338155
:101320002817390711F413821282329622E0E83A24
:10133000F207A1F748E050E062EA72E080EA92E04A
:101340000C945E09FC019C01285F3F4F90E080E017
:1013500044814111019614823196E217F307C1F7D7
:101360000895CF93DF93DC0190E2960F9830B0F4AC
:1013700014968C91149721E030E001C0220F9A95C9
:10138000EAF7442341F0282B14962C9381E090E057
:10139000DF91CF91089520952823F6CFFD01369651
:1013A0004423D1F0CD010C96EF012991621771F31E
:1013B000C817D907D1F790E080E02191211105C02D
:1013C000A80FB91F16966C93E1CF01968630910550
:1013D000A1F790E080E0DCCF90E080E02191621303
:1013E00005C0A80FB91F16961C92D0CF0196863063
:1013F0009105A1F7EECFCF93DF9341E0682F86E808
:1014000092E00E94B109EC01892B21F086E892E07C
:101410000E948A08CE01DF91CF910895CF93DF9388
:1014200040E0682F86E892E00E94B109EC01892B28
:1014300021F086E892E00E948A08CE01DF91CF91E8
:101440000895CF93DF93FC0101900020E9F73197D5
:10145000AF01481B590BBC018AE092E00E947F0655
:10146000EC0142E050E06FE671E08AE092E00E9419
:101470007F068C0F9D1FDF91CF9108951F920F92D1
:101480000FB60F9211248F939F938091E10090915A
:10149000E100937F9093E10083FF0FC01092E90079
:1014A00091E09093EB001092EC0092E39093ED00AA
:1014B0001092090298E09093F00082FF22C093E01E
:1014C0009093E9009091F200992319F09AE3909398
:1014D000E8009091F901992341F09091F901915020
:1014E0009093F901911101C05D9A9091080299239E
:1014F00041F090910802915090930802911101C01F
:10150000289A84FF18C08091E2008E7E81608093CB
:10151000E2008091E1008F7E8093E1008091FA01EA
:101520008E7E80618093FA019F918F910F900FBE04
:101530000F901F90189580FFF7CF8091E2008E7E6C
:1015400080618093E2008091E1008E7E8093E100D3
:101550008091FA018E7E8160E5CF1F920F920FB6C7
:101560000F921124CF92DF92EF92FF920F931F936D
:101570002F933F934F935F936F937F938F939F939B
:10158000AF93BF93EF93FF93CF93DF93CDB7DEB7C6
:101590006C97DEBFCDBF1092E9008091E80083FF19
:1015A00025C068E0CE0145960E945B0282EF8093E1
:1015B000E8008D8987FF39C09091E80090FFFCCF4B
:1015C000982F907609F034C19E894F89588D2F89C4
:1015D000F88C911131C0803861F58091FB018093C6
:1015E000F1001092F1008EEF8093E8006C960FB638
:1015F000F894DEBF0FBECDBFDF91CF91FF91EF9189
:10160000BF91AF919F918F917F916F915F914F911A
:101610003F912F911F910F91FF90EF90DF90CF900E
:101620000F900FBE0F901F9018959EEF9093E800BB
:10163000C7CF1092F100D5CF913059F48111D3CF9B
:101640004130510581F68091FB018D7F8093FB0134
:10165000CACF933049F48111C6CF4130510519F6F4
:101660008091FB018260F2CF953041F48091E800D7
:1016700080FFFCCF20682093E300B5CF963009F0BF
:10168000A9C00B8D1C8D22E01092E9001092F70189
:101690001092F601F2122EC01092F5011092F40190
:1016A0000E94DC021F8299E09983FA8291E09E8376
:1016B00090EA98879AEF99872091F6013091F70187
:1016C000275F3F4F3C832B838D831092E90010925C
:1016D000F7011092F6011093F5010093F40149E02F
:1016E00050E0BE016F5F7F4F80E00E9424020E94A5
:1016F000DC0279CF1093F5010093F4010E94C80237
:10170000DC0112960D911C910115110509F44BC1D4
:10171000D801ED91FC910480F581E02DBE016B5E56
:101720007F4FC8010995009709F038C1F80100857D
:101730001185EACFF3E0FF120EC08F89882309F4E8
:1017400040C0823061F440E862E18CE892E00E949F
:10175000230D811148CF81E28093EB0047CF813088
:1017600029F440E868E083E892E0F1CF833099F70C
:101770000E94C802DC011296ED90FC908E010F5F72
:101780001F4F6801E114F10479F0D701ED91FC914C
:101790000680F781E02DB801C7010995080F111DDA
:1017A000F701E084F184EECFD8011C92F60101909C
:1017B0000020E9F73197BF016C197D0940E0C601AF
:1017C000C6CF6DE672E0FB01449150E080E80E94D4
:1017D000240209CF973009F4BECF983021F481E07C
:1017E0008093F10000CF993009F0FDCE837009F0AD
:1017F000B2CFE1E0F1E081E031E096E321912223F4
:1018000071F08093E9003093EB00DF0111972C9188
:101810002093EC009093ED008F5F873079F78EE78F
:101820008093EA001092EA008F8980930902DBCE50
:101830008B8D9C8D1092E9001092F7011092F601A9
:101840009093F5018093F401898D81118CC08E896C
:101850009D89913A49F4813209F07DCF47E050E00B
:101860006BE071E080E0B3CF913209F074CF833246
:1018700069F48F89988DB0E0A0E080930701909380
:101880000801A0930901B0930A01ADCE803239F46A
:1018900067E070E08BE091E00E946802A4CE8232A3
:1018A00009F0A1CE8F8980931201EEEFFFE78591B9
:1018B00094918B3F9C4D51F1E0E0F8E080910B0159
:1018C00090910C01A0910D01B0910E01803B9440CC
:1018D000A105B105F1F48091120180FD1AC0EE3F1F
:1018E0008AE0F80789F587E797E7918380838091FD
:1018F00060008093F80188E19BE00FB6F894A8950A
:10190000809360000FBE909360006DCEEEEFFAE022
:10191000D5CF808191818737974709F064CEA8950C
:10192000809160008861809360008091F8018093CD
:101930006000EE3F2AE0F20789F08091FE0A909164
:10194000FF0A918380834FCE8081918187379807EA
:1019500051F29093FF0A8093FE0AC5CF1092FF0ABE
:101960001092FE0A40CE0E94C802DC0112960D9130
:101970001C910115110509F4EECED801ED91FC91F1
:101980000190F081E02DBE016B5E7F4FC80109958B
:10199000811129CEF80100851185EBCF18161906A3
:1019A0000CF421CED8CEF1E0FF12C4CE61E772E094
:1019B0000ACF1F920F920FB60F9211242F933F93CD
:1019C0008F939F93AF93BF938091FC019091FD0102
:1019D000A091FE01B091FF013091E30123E0230FBC
:1019E0002D3758F50196A11DB11D2093E301809379
:1019F000FC019093FD01A093FE01B093FF01809143
:101A0000E4019091E501A091E601B091E701019612
:101A1000A11DB11D8093E4019093E501A093E6011F
:101A2000B093E701BF91AF919F918F913F912F911B
:101A30000F900FBE0F901F90189526E8230F029667
:101A4000A11DB11DD2CFEF92FF920F931F93CF93A1
:101A5000DF93F82E192FE62E042F81E0860F880FD2
:101A60000E94F60183E00E94F601CF2DD12FEC0EEB
:101A7000FD2EF11CCE15DF05B9F007FF13C0FE01E6
:101A800084910E94F601182F80E00E94F6018123C4
:101A900021968111EFCFDF91CF911F910F91FF9090
:101AA000EF9008958881EDCF81E0F5CFBC01625FB2
:101AB0007F4FFC01838148E050E080640C94E50591
:101AC0000A970C94560DCF9310920D0210920C02AF
:101AD00088EE93E0A0E0B0E080930E0290930F02B6
:101AE000A0931002B093110289E291E090930B024F
:101AF00080930A028FEF9FEF909317028093160254
:101B0000C1E0C0935E02C0935F0280E792E09093D1
:101B1000610280936002109263021092620210923E
:101B20006702109266028BE391E090935B028093D0
:101B30005A0289E491E09093650280936402C09315
:101B40007102C09372021092730210927502109289
:101B50007402109277021092760281EC80937002E8
:101B60000E94C8026AE572E00E940D031092890289
:101B7000109288028BE591E0909387028093860211
:101B800080917E02811112C0109279021092780227
:101B90008FE992E090937B0280937A028BE390E04E
:101BA00090937D0280937C02C0937E020E948E07F8
:101BB000FC01A385B485109709F09BC088E792E0EB
:101BC000948783878585968520917C0230917D025C
:101BD000820F931F968785878DE691E09093A102EF
:101BE0008093A00280919802811113C010929302F9
:101BF000109292028AED92E0909395028093940263
:101C000089E190E0909397028093960281E080931F
:101C100098020E948E07FC01A385B485109709F0F5
:101C200073C082E992E094878387858596852091A9
:101C3000960230919702820F931F968785871092A4
:101C4000AB021092B2021092B9021092BA02109234
:101C5000BB021092BC0281E08093B8028093B5026F
:101C60001092B60292E09093B7028093AA0288E1A4
:101C700090E09093AF028093AE020E944112909345
:101C8000B4028093B302009709F448C028E1FC0134
:101C900011922A95E9F788E090E09093AD02809345
:101CA000AC028AE090E09093B1028093B002809100
:101CB000AB02882341F061E08AE00E947A0460E090
:101CC0008AE00E944C04EAE2F3E0E491F0E0EE0FD7
:101CD000FF1FEE5EFC4F859194919093BE0280931E
:101CE000BD02EDEFF2E0E491E093BF02CF910895E1
:101CF000DC018D919C9111970097D1F788E792E0D4
:101D00008D939C935FCFDC018D919C9111970097EF
:101D1000D1F782E992E08D939C9387CF1092AF0226
:101D20001092AE021092AD021092AC02BACF78942B
:101D300084B5826084BD84B5816084BD85B58260D0
:101D400085BD85B5816085BD80916E008160809381
:101D50006E001092810080918100826080938100EA
:101D600080918100816080938100809180008160FA
:101D70008093800080919100826080939100809197
:101D800091008160809391008091900081608093A8
:101D900090008091C10084608093C1008091C10057
:101DA00082608093C1008091C10081608093C100F6
:101DB0008091C30081608093C3008091C0008260E5
:101DC0008093C0008091C20081608093C2008091A6
:101DD0007A00846080937A0080917A008260809398
:101DE0007A0080917A00816080937A0080917A00F5
:101DF000806880937A00109209021092FB01109281
:101E0000FA018091D70081608093D70080EA8093A7
:101E1000D80089B5806189BD89B5826089BD09B462
:101E200000FEFDCF61E070E080E090E00E94B3052D
:101E30008091D8008F7C80618093D8008091E000F1
:101E4000807F8093E0008091E1008E7E8093E100AE
:101E50008DE08093E200559A209A8FEF9FEF909348
:101E600017028093160261E080E00E947A0461E02C
:101E700081E00E947A0462E083E00E947A0462E0DA
:101E800082E00E947A0462E085E10E947A0462E0C6
:101E900084E10E947A0462E087E00E947A0462E0B2
:101EA00088E00E947A0462E082E10E947A0462E0A3
:101EB00083E10E947A0462E084E00E947A0462E096
:101EC00085E00E947A0462E086E00E947A0462E083
:101ED00080E10E947A0462E08EE00E947A0462E06F
:101EE0008FE00E947A0484E692E00E94A20984E6D0
:101EF00092E00E94600D86E892E00E94A20986E8C6
:101F000092E00E948A08E2EAF2E088E0DF011D9296
:101F10008A95E9F748E050E0BF0180EA92E00E942C
:101F20005E098091B0029091B10297FD08C061E016
:101F30000E947A0460E08091B0020E944C0481E02B
:101F40008093AB026091B2022091B3023091B4024F
:101F5000653609F16150C9F070E08FEF94E60E9498
:101F60002712F9014091AE025091AF02CF01821BBE
:101F7000930B8417950760F44081469FC001479FEB
:101F8000900D112490833196EDCF70E060E0E9CFA1
:101F900085E68093B2028091B3029091B402892BBE
:101FA00011F00E94DB04C0E0D0E08FB7F894C0903D
:101FB000FC01D090FD01E090FE01F090FF018FBF89
:101FC0008091730261E081FF60E080E00E944C0438
:101FD0008091730261E080FF60E081E00E944C0428
:101FE00084E00E942304892BD9F482E791E00E94C7
:101FF000210A8AEE90E00E946F098AEE90E00E942A
:102000008C0962E370E080E090E00E94B30584E018
:102010000E942304892BD9F38AEE90E00E948C0958
:1020200085E00E942304892BD9F486E791E00E9481
:10203000210A82EE90E00E946F0982EE90E00E94F9
:102040008C0962E370E080E090E00E94B30585E0D7
:102050000E942304892BD9F382EE90E00E948C0920
:1020600086E00E942304892BB9F48AE791E00E945C
:10207000210A89EE90E00E946F0962E370E080E03F
:1020800090E00E94B30586E00E942304892BD9F3D7
:1020900089EE90E00E948C0980E10E942304892B44
:1020A000B9F48EE791E00E94210A86EB90E00E944D
:1020B0006F0962E370E080E090E00E94B30580E188
:1020C0000E942304892BD9F386EB90E00E948C09AF
:1020D0008EE00E942304892BB9F482E891E00E94EB
:1020E000210A8DEC90E00E946F0962E370E080E0CD
:1020F00090E00E94B3058EE00E942304892BD9F35F
:102100008DEC90E00E948C098FE00E942304892BC3
:10211000B9F486E891E00E94210A85EB90E00E94E4
:102120006F0962E370E080E090E00E94B3058FE009
:102130000E942304892BD9F385EB90E00E948C093F
:1021400087E00E942304892BA9F48AE891E00E9489
:10215000210A80E50E94FB0962E370E080E090E0E4
:102160000E94B30587E00E942304892BD9F380E500
:102170000E940E0A88E00E942304892BA9F482E9B8
:1021800091E00E94210A81E50E94FB0962E370E070
:1021900080E090E00E94B30588E00E942304892B30
:1021A000D9F381E50E940E0A82E10E942304892B63
:1021B000A9F48AE991E00E94210A8FE40E94FB09B8
:1021C00062E370E080E090E00E94B30582E10E944B
:1021D0002304892BD9F38FE40E940E0A83E10E9425
:1021E0002304892BA9F482EA91E00E94210A86E562
:1021F0000E94FB0962E370E080E090E00E94B3057A
:1022000083E10E942304892BD9F386E50E940E0AFC
:1022100084E10E942304892BA9F48AEA91E00E94B8
:10222000210A87E50E94FB0962E370E080E090E00C
:102230000E94B30584E10E942304892BD9F387E52A
:102240000E940E0A85E10E942304892BA9F482EBE7
:1022500091E00E94210A89E00E94FB0962E370E09C
:1022600080E090E00E94B30585E10E942304892B61
:10227000D9F389E00E940E0A82E00E942304892B90
:10228000A9F48AEB91E00E94210A82E50E94FB09F1
:1022900062E370E080E090E00E94B30582E00E947B
:1022A0002304892BD9F382E50E940E0A83E00E9461
:1022B0002304892BA9F482EC91E00E94210A8EE389
:1022C0000E94FB0962E370E080E090E00E94B305A9
:1022D00083E00E942304892BD9F38EE30E940E0A27
:1022E000809106029091070210910502212F30E0A3
:1022F0004091AC025091AD022417350708F04AC056
:10230000E82F8A3A91050CF4EAEAEA5A482F50E09D
:1023100070E060E0BA01552744275E2B4B01AA24E8
:10232000BB24452F562F672F7727A42F0091B20289
:10233000002371F0A02FB0E0A89DF001A99DF00D41
:10234000B89DF00D11248F2E049FA0011124A52FFC
:10235000E091B8026091B3027091B4024091B5026D
:10236000E4134DC0B3E01B9F600D711D1124E0917B
:10237000B502E60FF72FF11D8082E091B602E60F5D
:10238000F72FF11DA0834091B7029B01240F311D4F
:10239000F901108240910102509102026091030202
:1023A000709104024C155D056E057F05D1F0C09259
:1023B0000102D0920202E0920302F092040219306C
:1023C00090F18F3F910534F11092000220910002AC
:1023D000222339F10196909307028093060210920E
:1023E00005028091B3029091B402892B11F00E94F2
:1023F000DB04209709F4D9CD0E940000D6CD220F2E
:10240000331F220F331F620F731FE60FF72FF11DCB
:102410001082ADCF86359105CCF621E020930002E5
:10242000D5CF0197D8CF1F5F10930502DACF8091E7
:10243000B3029091B4020E94DD128091B00290919B
:10244000B10297FD03C060E00C947A040895AA1BC2
:10245000BB1B51E107C0AA1FBB1FA617B70710F08F
:10246000A61BB70B881F991F5A95A9F780959095C1
:10247000BC01CD010895EE0FFF1F0590F491E02DF2
:1024800009940F931F93CF93DF938230910510F43B
:1024900082E090E0E091C202F091C30230E020E0DF
:1024A000B0E0A0E0309799F42115310509F44AC055
:1024B000281B390B24303105D8F58A819B816115A1
:1024C000710589F1FB0193838283FE0111C0408174
:1024D00051810281138148175907E0F048175907C5
:1024E00099F4109761F012960C93129713961C931F
:1024F0003296CF01DF91CF911F910F9108950093F4
:10250000C2021093C302F4CF2115310551F04217D6
:10251000530738F0A901DB019A01BD01DF01F80181
:10252000C1CFEF01F9CF9093C3028093C202CDCF08
:10253000FE01E20FF31F81939193225031093983F9
:102540002883D7CF2091C0023091C102232B41F4C0
:1025500020911501309116013093C1022093C002E1
:1025600020911301309114012115310541F42DB74B
:102570003EB74091170150911801241B350BE09193
:10258000C002F091C102E217F307A0F42E1B3F0B2B
:102590002817390778F0AC014E5F5F4F24173507D5
:1025A00048F04E0F5F1F5093C1024093C0028193C9
:1025B00091939FCFF0E0E0E09CCFCF93DF93009723
:1025C000E9F0FC01329713821282A091C202B0910D
:1025D000C302ED0130E020E01097A1F420813181A9
:1025E000820F931F2091C0023091C1022817390732
:1025F00009F061C0F093C102E093C002DF91CF9176
:102600000895EA01CE17DF07E8F54A815B819E0154
:1026100041155105B1F7E901FB83EA8349915991CD
:10262000C40FD51FEC17FD0761F4808191810296DC
:10263000840F951FE90199838883828193819B830D
:102640008A83F0E0E0E012968D919C9113970097B9
:10265000B9F52D913C911197CD010296820F931FF0
:102660002091C0023091C1022817390739F63097FE
:1026700051F51092C3021092C202B093C102A0930E
:10268000C002BCCFD383C28340815181840F951F88
:10269000C817D90761F44E5F5F4F88819981480F51
:1026A000591F518340838A819B81938382832115A3
:1026B000310509F0B0CFF093C302E093C2029ECF80
:1026C000FD01DC01C0CF13821282D7CF11E0C1EA35
:1026D000D1E004C0FE010E943B122196C23AD1070C
:0626E000C9F7F894FFCFDA
:1026E60000C18081000000FFFFFFFF00E100000045
:1026F6000000000000C402800000000000950643B0
:10270600070807ED060000000055037F0676036BF9
:1027160003BD037B03990300000000C30738081BB1
:10272600088308560DF6FF000031099B025B095A23
:1027360009A209600DB1090000000031099B025B86
:10274600095A09A2098A08B109000000005E090DAC
:102756000A005331310053543100533231005331A2
:10276600320053543200533232004B45595F535FA7
:1027760035004B45595F535F36004B45595F535FF4
:1027860037004B45595F535F38004B45595F535FE0
:1027960034004B45595F535F33004B45595F535FD8
:0A27A60032004B45595F535F3100CC
:00000001FF
